{
  "contractName": "Agent",
  "abi": [
    {
      "constant": true,
      "inputs": [],
      "name": "resourcesCount",
      "outputs": [
        {
          "name": "",
          "type": "uint256"
        }
      ],
      "payable": false,
      "stateMutability": "view",
      "type": "function",
      "signature": "0x51ac7b8c"
    },
    {
      "constant": true,
      "inputs": [],
      "name": "owner",
      "outputs": [
        {
          "name": "",
          "type": "address"
        }
      ],
      "payable": false,
      "stateMutability": "view",
      "type": "function",
      "signature": "0x8da5cb5b"
    },
    {
      "constant": true,
      "inputs": [],
      "name": "requestsCount",
      "outputs": [
        {
          "name": "",
          "type": "uint256"
        }
      ],
      "payable": false,
      "stateMutability": "view",
      "type": "function",
      "signature": "0xfbfa4b7f"
    },
    {
      "inputs": [],
      "payable": false,
      "stateMutability": "nonpayable",
      "type": "constructor",
      "signature": "constructor"
    },
    {
      "anonymous": false,
      "inputs": [
        {
          "indexed": false,
          "name": "user",
          "type": "address"
        }
      ],
      "name": "logUserOnline",
      "type": "event",
      "signature": "0xcd6b6db9e962bf3317f868c9140c003787641e7ccb209da4d7243d6dbd900c34"
    },
    {
      "anonymous": false,
      "inputs": [
        {
          "indexed": false,
          "name": "reqTo",
          "type": "address"
        }
      ],
      "name": "logRequest",
      "type": "event",
      "signature": "0x83a2da936c6bcf19adffb89f59e768f098beb36b7a21116cdefa0dce46ea6822"
    },
    {
      "anonymous": false,
      "inputs": [
        {
          "indexed": false,
          "name": "resTo",
          "type": "address"
        }
      ],
      "name": "logResponse",
      "type": "event",
      "signature": "0xbdb02053ba609addc9a43c2aeb474c7f5326cadc9337cd66d502545a00b9bf2e"
    },
    {
      "anonymous": false,
      "inputs": [
        {
          "indexed": false,
          "name": "fetchFrom",
          "type": "address"
        }
      ],
      "name": "logFetch",
      "type": "event",
      "signature": "0x8ab7781d00a8f74b1a06d17776a9241bd947864fc6abef4bd1ece3ba9f0e16ba"
    },
    {
      "constant": true,
      "inputs": [],
      "name": "getRequestsCount",
      "outputs": [
        {
          "name": "count",
          "type": "uint256"
        }
      ],
      "payable": false,
      "stateMutability": "view",
      "type": "function",
      "signature": "0x3410452a"
    },
    {
      "constant": true,
      "inputs": [],
      "name": "getResourcesCount",
      "outputs": [
        {
          "name": "count",
          "type": "uint256"
        }
      ],
      "payable": false,
      "stateMutability": "view",
      "type": "function",
      "signature": "0x14ced016"
    },
    {
      "constant": true,
      "inputs": [],
      "name": "getLastPulseTimestamp",
      "outputs": [
        {
          "name": "timestamp",
          "type": "uint256"
        }
      ],
      "payable": false,
      "stateMutability": "view",
      "type": "function",
      "signature": "0x0148349f"
    },
    {
      "constant": true,
      "inputs": [],
      "name": "getTimeout",
      "outputs": [
        {
          "name": "curTimeout",
          "type": "uint256"
        }
      ],
      "payable": false,
      "stateMutability": "view",
      "type": "function",
      "signature": "0x3499ba95"
    },
    {
      "constant": false,
      "inputs": [
        {
          "name": "val",
          "type": "uint256"
        }
      ],
      "name": "setTimeout",
      "outputs": [],
      "payable": false,
      "stateMutability": "nonpayable",
      "type": "function",
      "signature": "0xc58a34cc"
    },
    {
      "constant": false,
      "inputs": [
        {
          "name": "username",
          "type": "string"
        }
      ],
      "name": "setUsername",
      "outputs": [],
      "payable": false,
      "stateMutability": "nonpayable",
      "type": "function",
      "signature": "0xed59313a"
    },
    {
      "constant": false,
      "inputs": [
        {
          "name": "avatarHash",
          "type": "string"
        }
      ],
      "name": "setAvatar",
      "outputs": [],
      "payable": false,
      "stateMutability": "nonpayable",
      "type": "function",
      "signature": "0x6ec5239f"
    },
    {
      "constant": false,
      "inputs": [
        {
          "name": "motto",
          "type": "string"
        }
      ],
      "name": "setMotto",
      "outputs": [],
      "payable": false,
      "stateMutability": "nonpayable",
      "type": "function",
      "signature": "0xb8bf81bd"
    },
    {
      "constant": true,
      "inputs": [],
      "name": "getProfile",
      "outputs": [
        {
          "name": "username",
          "type": "string"
        },
        {
          "name": "avatarHash",
          "type": "string"
        },
        {
          "name": "motto",
          "type": "string"
        },
        {
          "name": "lastModified",
          "type": "uint256"
        }
      ],
      "payable": false,
      "stateMutability": "view",
      "type": "function",
      "signature": "0xd6afc9b1"
    },
    {
      "constant": false,
      "inputs": [],
      "name": "pulse",
      "outputs": [],
      "payable": false,
      "stateMutability": "nonpayable",
      "type": "function",
      "signature": "0xdeb189b5"
    },
    {
      "constant": false,
      "inputs": [],
      "name": "checkStatus",
      "outputs": [
        {
          "name": "status",
          "type": "bool"
        }
      ],
      "payable": false,
      "stateMutability": "nonpayable",
      "type": "function",
      "signature": "0x3b7104f2"
    },
    {
      "constant": false,
      "inputs": [
        {
          "name": "hash",
          "type": "string"
        },
        {
          "name": "price",
          "type": "uint256"
        }
      ],
      "name": "initResourceState",
      "outputs": [
        {
          "name": "status",
          "type": "bool"
        }
      ],
      "payable": false,
      "stateMutability": "nonpayable",
      "type": "function",
      "signature": "0xd1a75e20"
    },
    {
      "constant": false,
      "inputs": [
        {
          "name": "hash",
          "type": "string"
        },
        {
          "name": "price",
          "type": "uint256"
        }
      ],
      "name": "setPrice",
      "outputs": [
        {
          "name": "status",
          "type": "bool"
        }
      ],
      "payable": false,
      "stateMutability": "nonpayable",
      "type": "function",
      "signature": "0x22e01192"
    },
    {
      "constant": false,
      "inputs": [
        {
          "name": "hash",
          "type": "string"
        },
        {
          "name": "available",
          "type": "bool"
        }
      ],
      "name": "setAvailable",
      "outputs": [
        {
          "name": "status",
          "type": "bool"
        }
      ],
      "payable": false,
      "stateMutability": "nonpayable",
      "type": "function",
      "signature": "0x41f3c11b"
    },
    {
      "constant": true,
      "inputs": [
        {
          "name": "resourceHash",
          "type": "string"
        }
      ],
      "name": "getResourceState",
      "outputs": [
        {
          "name": "id",
          "type": "uint256"
        },
        {
          "name": "price",
          "type": "uint256"
        },
        {
          "name": "count",
          "type": "uint256"
        },
        {
          "name": "available",
          "type": "bool"
        },
        {
          "name": "lastModified",
          "type": "uint256"
        }
      ],
      "payable": false,
      "stateMutability": "view",
      "type": "function",
      "signature": "0xdb9ddf94"
    },
    {
      "constant": true,
      "inputs": [
        {
          "name": "id",
          "type": "uint256"
        }
      ],
      "name": "getResourceStateById",
      "outputs": [
        {
          "name": "hash",
          "type": "string"
        },
        {
          "name": "price",
          "type": "uint256"
        },
        {
          "name": "count",
          "type": "uint256"
        },
        {
          "name": "available",
          "type": "bool"
        },
        {
          "name": "lastModified",
          "type": "uint256"
        }
      ],
      "payable": false,
      "stateMutability": "view",
      "type": "function",
      "signature": "0xc39f858e"
    },
    {
      "constant": false,
      "inputs": [
        {
          "name": "resourceHash",
          "type": "string"
        },
        {
          "name": "host",
          "type": "string"
        },
        {
          "name": "port",
          "type": "uint256"
        }
      ],
      "name": "requestResource",
      "outputs": [],
      "payable": false,
      "stateMutability": "nonpayable",
      "type": "function",
      "signature": "0x53e4e2e4"
    },
    {
      "constant": true,
      "inputs": [
        {
          "name": "id",
          "type": "uint256"
        }
      ],
      "name": "getRequest",
      "outputs": [
        {
          "name": "resourceHash",
          "type": "string"
        },
        {
          "name": "requester",
          "type": "address"
        },
        {
          "name": "timestamp",
          "type": "uint256"
        },
        {
          "name": "host",
          "type": "string"
        },
        {
          "name": "port",
          "type": "uint256"
        }
      ],
      "payable": false,
      "stateMutability": "view",
      "type": "function",
      "signature": "0xc58343ef"
    },
    {
      "constant": false,
      "inputs": [
        {
          "name": "id",
          "type": "uint256"
        },
        {
          "name": "success",
          "type": "bool"
        },
        {
          "name": "url",
          "type": "string"
        },
        {
          "name": "token",
          "type": "string"
        }
      ],
      "name": "responseResource",
      "outputs": [],
      "payable": false,
      "stateMutability": "nonpayable",
      "type": "function",
      "signature": "0x30cd3d4b"
    },
    {
      "constant": false,
      "inputs": [
        {
          "name": "id",
          "type": "uint256"
        }
      ],
      "name": "fetchResponse",
      "outputs": [
        {
          "name": "success",
          "type": "bool"
        },
        {
          "name": "url",
          "type": "string"
        },
        {
          "name": "token",
          "type": "string"
        },
        {
          "name": "timestamp",
          "type": "uint256"
        }
      ],
      "payable": true,
      "stateMutability": "payable",
      "type": "function",
      "signature": "0x9c4ee22e"
    }
  ],
  "bytecode": "0x608060405234801561001057600080fd5b50336000806101000a81548173ffffffffffffffffffffffffffffffffffffffff021916908373ffffffffffffffffffffffffffffffffffffffff16021790555060006005819055506000600681905550612710600881905550613573806100796000396000f300608060405260043610610133576000357c0100000000000000000000000000000000000000000000000000000000900463ffffffff1680630148349f1461013857806314ced0161461016357806322e011921461018e57806330cd3d4b146102195780633410452a146102de5780633499ba95146103095780633b7104f21461033457806341f3c11b1461036357806351ac7b8c146103f057806353e4e2e41461041b5780636ec5239f146104d45780638da5cb5b1461053d5780639c4ee22e14610594578063b8bf81bd146106ab578063c39f858e14610714578063c58343ef146107da578063c58a34cc1461092d578063d1a75e201461095a578063d6afc9b1146109e5578063db9ddf9414610b54578063deb189b514610bf1578063ed59313a14610c08578063fbfa4b7f14610c71575b600080fd5b34801561014457600080fd5b5061014d610c9c565b6040518082815260200191505060405180910390f35b34801561016f57600080fd5b50610178610ca6565b6040518082815260200191505060405180910390f35b34801561019a57600080fd5b506101ff600480360381019080803590602001908201803590602001908080601f016020809104026020016040519081016040528093929190818152602001838380828437820191505050505050919291929080359060200190929190505050610cb0565b604051808215151515815260200191505060405180910390f35b34801561022557600080fd5b506102dc60048036038101908080359060200190929190803515159060200190929190803590602001908201803590602001908080601f0160208091040260200160405190810160405280939291908181526020018383808284378201915050505050509192919290803590602001908201803590602001908080601f0160208091040260200160405190810160405280939291908181526020018383808284378201915050505050509192919290505050610ee7565b005b3480156102ea57600080fd5b506102f361118a565b6040518082815260200191505060405180910390f35b34801561031557600080fd5b5061031e611194565b6040518082815260200191505060405180910390f35b34801561034057600080fd5b5061034961119e565b604051808215151515815260200191505060405180910390f35b34801561036f57600080fd5b506103d6600480360381019080803590602001908201803590602001908080601f01602080910402602001604051908101604052809392919081815260200183838082843782019150505050505091929192908035151590602001909291905050506111f7565b604051808215151515815260200191505060405180910390f35b3480156103fc57600080fd5b50610405611441565b6040518082815260200191505060405180910390f35b34801561042757600080fd5b506104d2600480360381019080803590602001908201803590602001908080601f0160208091040260200160405190810160405280939291908181526020018383808284378201915050505050509192919290803590602001908201803590602001908080601f016020809104026020016040519081016040528093929190818152602001838380828437820191505050505050919291929080359060200190929190505050611447565b005b3480156104e057600080fd5b5061053b600480360381019080803590602001908201803590602001908080601f0160208091040260200160405190810160405280939291908181526020018383808284378201915050505050509192919290505050611782565b005b34801561054957600080fd5b50610552611a66565b604051808273ffffffffffffffffffffffffffffffffffffffff1673ffffffffffffffffffffffffffffffffffffffff16815260200191505060405180910390f35b6105b260048036038101908080359060200190929190505050611a8b565b60405180851515151581526020018060200180602001848152602001838103835286818151815260200191508051906020019080838360005b838110156106065780820151818401526020810190506105eb565b50505050905090810190601f1680156106335780820380516001836020036101000a031916815260200191505b50838103825285818151815260200191508051906020019080838360005b8381101561066c578082015181840152602081019050610651565b50505050905090810190601f1680156106995780820380516001836020036101000a031916815260200191505b50965050505050505060405180910390f35b3480156106b757600080fd5b50610712600480360381019080803590602001908201803590602001908080601f01602080910402602001604051908101604052809392919081815260200183838082843782019150505050505091929192905050506121c0565b005b34801561072057600080fd5b5061073f600480360381019080803590602001909291905050506122ab565b604051808060200186815260200185815260200184151515158152602001838152602001828103825287818151815260200191508051906020019080838360005b8381101561079b578082015181840152602081019050610780565b50505050905090810190601f1680156107c85780820380516001836020036101000a031916815260200191505b50965050505050505060405180910390f35b3480156107e657600080fd5b5061080560048036038101908080359060200190929190505050612662565b60405180806020018673ffffffffffffffffffffffffffffffffffffffff1673ffffffffffffffffffffffffffffffffffffffff16815260200185815260200180602001848152602001838103835288818151815260200191508051906020019080838360005b8381101561088757808201518184015260208101905061086c565b50505050905090810190601f1680156108b45780820380516001836020036101000a031916815260200191505b50838103825285818151815260200191508051906020019080838360005b838110156108ed5780820151818401526020810190506108d2565b50505050905090810190601f16801561091a5780820380516001836020036101000a031916815260200191505b5097505050505050505060405180910390f35b34801561093957600080fd5b5061095860048036038101908080359060200190929190505050612999565b005b34801561096657600080fd5b506109cb600480360381019080803590602001908201803590602001908080601f016020809104026020016040519081016040528093929190818152602001838380828437820191505050505050919291929080359060200190929190505050612a67565b604051808215151515815260200191505060405180910390f35b3480156109f157600080fd5b506109fa612cfc565b60405180806020018060200180602001858152602001848103845288818151815260200191508051906020019080838360005b83811015610a48578082015181840152602081019050610a2d565b50505050905090810190601f168015610a755780820380516001836020036101000a031916815260200191505b50848103835287818151815260200191508051906020019080838360005b83811015610aae578082015181840152602081019050610a93565b50505050905090810190601f168015610adb5780820380516001836020036101000a031916815260200191505b50848103825286818151815260200191508051906020019080838360005b83811015610b14578082015181840152602081019050610af9565b50505050905090810190601f168015610b415780820380516001836020036101000a031916815260200191505b5097505050505050505060405180910390f35b348015610b6057600080fd5b50610bbb600480360381019080803590602001908201803590602001908080601f0160208091040260200160405190810160405280939291908181526020018383808284378201915050505050509192919290505050612ef9565b60405180868152602001858152602001848152602001831515151581526020018281526020019550505050505060405180910390f35b348015610bfd57600080fd5b50610c066131e6565b005b348015610c1457600080fd5b50610c6f600480360381019080803590602001908201803590602001908080601f0160208091040260200160405190810160405280939291908181526020018383808284378201915050505050509192919290505050613331565b005b348015610c7d57600080fd5b50610c8661341c565b6040518082815260200191505060405180910390f35b6000600754905090565b6000600654905090565b60008060009054906101000a900473ffffffffffffffffffffffffffffffffffffffff1673ffffffffffffffffffffffffffffffffffffffff163373ffffffffffffffffffffffffffffffffffffffff16141515610d76576040517f08c379a00000000000000000000000000000000000000000000000000000000081526004018080602001828103825260138152602001807f6f776e65722d6f6e6c792066756e6374696f6e0000000000000000000000000081525060200191505060405180910390fd5b6000600c846040518082805190602001908083835b602083101515610db05780518252602082019150602081019050602083039250610d8b565b6001836020036101000a0380198251168184511680821785525050505050509050019150509081526020016040518091039020600501541415610df65760009050610ee1565b81600c846040518082805190602001908083835b602083101515610e2f5780518252602082019150602081019050602083039250610e0a565b6001836020036101000a03801982511681845116808217855250505050505090500191505090815260200160405180910390206002018190555042600c846040518082805190602001908083835b602083101515610ea25780518252602082019150602081019050602083039250610e7d565b6001836020036101000a038019825116818451168082178552505050505050905001915050908152602001604051809103902060050181905550600190505b92915050565b6000809054906101000a900473ffffffffffffffffffffffffffffffffffffffff1673ffffffffffffffffffffffffffffffffffffffff163373ffffffffffffffffffffffffffffffffffffffff16141515610fab576040517f08c379a00000000000000000000000000000000000000000000000000000000081526004018080602001828103825260138152602001807f6f776e65722d6f6e6c792066756e6374696f6e0000000000000000000000000081525060200191505060405180910390fd5b60055484101515611024576040517f08c379a000000000000000000000000000000000000000000000000000000000815260040180806020018281038252600f8152602001807f6964206f7574206f662072616e6765000000000000000000000000000000000081525060200191505060405180910390fd5b60a060405190810160405280841515815260200183815260200182815260200142815260200160001515815250600b600086815260200190815260200160002060008201518160000160006101000a81548160ff02191690831515021790555060208201518160010190805190602001906110a0929190613422565b5060408201518160020190805190602001906110bd929190613422565b506060820151816003015560808201518160040160006101000a81548160ff0219169083151502179055509050507fbdb02053ba609addc9a43c2aeb474c7f5326cadc9337cd66d502545a00b9bf2e600a600086815260200190815260200160002060010160009054906101000a900473ffffffffffffffffffffffffffffffffffffffff16604051808273ffffffffffffffffffffffffffffffffffffffff1673ffffffffffffffffffffffffffffffffffffffff16815260200191505060405180910390a150505050565b6000600554905090565b6000600854905090565b6000801515600960009054906101000a900460ff16151514806111c657506008546007544203115b156111ef576000600960006101000a81548160ff021916908315150217905550600090506111f4565b600190505b90565b60008060009054906101000a900473ffffffffffffffffffffffffffffffffffffffff1673ffffffffffffffffffffffffffffffffffffffff163373ffffffffffffffffffffffffffffffffffffffff161415156112bd576040517f08c379a00000000000000000000000000000000000000000000000000000000081526004018080602001828103825260138152602001807f6f776e65722d6f6e6c792066756e6374696f6e0000000000000000000000000081525060200191505060405180910390fd5b6000600c846040518082805190602001908083835b6020831015156112f757805182526020820191506020810190506020830392506112d2565b6001836020036101000a038019825116818451168082178552505050505050905001915050908152602001604051809103902060050154141561133d576000905061143b565b81600c846040518082805190602001908083835b6020831015156113765780518252602082019150602081019050602083039250611351565b6001836020036101000a038019825116818451168082178552505050505050905001915050908152602001604051809103902060040160006101000a81548160ff02191690831515021790555042600c846040518082805190602001908083835b6020831015156113fc57805182526020820191506020810190506020830392506113d7565b6001836020036101000a038019825116818451168082178552505050505050905001915050908152602001604051809103902060050181905550600190505b92915050565b60065481565b6000809054906101000a900473ffffffffffffffffffffffffffffffffffffffff1673ffffffffffffffffffffffffffffffffffffffff163373ffffffffffffffffffffffffffffffffffffffff161415151561150c576040517f08c379a000000000000000000000000000000000000000000000000000000000815260040180806020018281038252600e8152602001807f696e76616c69642073656e64657200000000000000000000000000000000000081525060200191505060405180910390fd5b600c836040518082805190602001908083835b602083101515611544578051825260208201915060208101905060208303925061151f565b6001836020036101000a038019825116818451168082178552505050505050905001915050908152602001604051809103902060040160009054906101000a900460ff1615156115fc576040517f08c379a000000000000000000000000000000000000000000000000000000000815260040180806020018281038252601d8152602001807f7265736f75726365206973206e6f77206e6f7420617661696c61626c6500000081525060200191505060405180910390fd5b60a0604051908101604052808481526020013373ffffffffffffffffffffffffffffffffffffffff16815260200142815260200183815260200182815250600a60006005548152602001908152602001600020600082015181600001908051906020019061166b929190613422565b5060208201518160010160006101000a81548173ffffffffffffffffffffffffffffffffffffffff021916908373ffffffffffffffffffffffffffffffffffffffff1602179055506040820151816002015560608201518160030190805190602001906116d9929190613422565b50608082015181600401559050506005600081548092919060010191905055507f83a2da936c6bcf19adffb89f59e768f098beb36b7a21116cdefa0dce46ea68226000809054906101000a900473ffffffffffffffffffffffffffffffffffffffff16604051808273ffffffffffffffffffffffffffffffffffffffff1673ffffffffffffffffffffffffffffffffffffffff16815260200191505060405180910390a1505050565b6000809054906101000a900473ffffffffffffffffffffffffffffffffffffffff1673ffffffffffffffffffffffffffffffffffffffff163373ffffffffffffffffffffffffffffffffffffffff16141515611846576040517f08c379a00000000000000000000000000000000000000000000000000000000081526004018080602001828103825260138152602001807f6f776e65722d6f6e6c792066756e6374696f6e0000000000000000000000000081525060200191505060405180910390fd5b6000600c6001800160405180828054600181600116156101000203166002900480156118a95780601f106118875761010080835404028352918201916118a9565b820191906000526020600020905b815481529060010190602001808311611895575b5050915050908152602001604051809103902060050181905550806001800190805190602001906118db9291906134a2565b504260016003018190555042600c826040518082805190602001908083835b60208310151561191f57805182526020820191506020810190506020830392506118fa565b6001836020036101000a03801982511681845116808217855250505050505090500191505090815260200160405180910390206005018190555080600c826040518082805190602001908083835b602083101515611992578051825260208201915060208101905060208303925061196d565b6001836020036101000a038019825116818451168082178552505050505050905001915050908152602001604051809103902060010190805190602001906119db9291906134a2565b506001600c826040518082805190602001908083835b602083101515611a1657805182526020820191506020810190506020830392506119f1565b6001836020036101000a038019825116818451168082178552505050505050905001915050908152602001604051809103902060040160006101000a81548160ff02191690831515021790555050565b6000809054906101000a900473ffffffffffffffffffffffffffffffffffffffff1681565b60006060806000606060055486101515611b0d576040517f08c379a000000000000000000000000000000000000000000000000000000000815260040180806020018281038252600f8152602001807f6964206f7574206f662072616e6765000000000000000000000000000000000081525060200191505060405180910390fd5b3373ffffffffffffffffffffffffffffffffffffffff16600a600088815260200190815260200160002060010160009054906101000a900473ffffffffffffffffffffffffffffffffffffffff1673ffffffffffffffffffffffffffffffffffffffff16141515611be6576040517f08c379a00000000000000000000000000000000000000000000000000000000081526004018080602001828103825260208152602001807f61636365737320746f20746865207265717565737420646973616c6c6f77656481525060200191505060405180910390fd5b6000600b60008881526020019081526020016000206003015414151515611c75576040517f08c379a00000000000000000000000000000000000000000000000000000000081526004018080602001828103825260178152602001807f726573706f6e736520646f6573206e6f7420657869737400000000000000000081525060200191505060405180910390fd5b60001515600b600088815260200190815260200160002060000160009054906101000a900460ff1615151415611cdc5760008060206040519081016040528060008152509060206040519081016040528060008152509080905094509450945094506121b8565b600a60008781526020019081526020016000206000018054600181600116156101000203166002900480601f016020809104026020016040519081016040528092919081815260200182805460018160011615610100020316600290048015611d865780601f10611d5b57610100808354040283529160200191611d86565b820191906000526020600020905b815481529060010190602001808311611d6957829003601f168201915b50505050509050600c816040518082805190602001908083835b602083101515611dc55780518252602082019150602081019050602083039250611da0565b6001836020036101000a0380198251168184511680821785525050505050509050019150509081526020016040518091039020600201543410151515611e99576040517f08c379a00000000000000000000000000000000000000000000000000000000081526004018080602001828103825260318152602001807f796f752073686f756c6420706179206174206c6561737420746865207072696381526020017f65206f6620746865207265736f7572636500000000000000000000000000000081525060400191505060405180910390fd5b6000809054906101000a900473ffffffffffffffffffffffffffffffffffffffff1673ffffffffffffffffffffffffffffffffffffffff166108fc349081150290604051600060405180830381858888f19350505050158015611f00573d6000803e3d6000fd5b50600c816040518082805190602001908083835b602083101515611f395780518252602082019150602081019050602083039250611f14565b6001836020036101000a0380198251168184511680821785525050505050509050019150509081526020016040518091039020600301600081548092919060010191905055506001600b600088815260200190815260200160002060040160006101000a81548160ff0219169083151502179055507f8ab7781d00a8f74b1a06d17776a9241bd947864fc6abef4bd1ece3ba9f0e16ba6000809054906101000a900473ffffffffffffffffffffffffffffffffffffffff16604051808273ffffffffffffffffffffffffffffffffffffffff1673ffffffffffffffffffffffffffffffffffffffff16815260200191505060405180910390a16001600b6000888152602001908152602001600020600101600b6000898152602001908152602001600020600201600b60008a815260200190815260200160002060030154828054600181600116156101000203166002900480601f01602080910402602001604051908101604052809291908181526020018280546001816001161561010002031660029004801561210c5780601f106120e15761010080835404028352916020019161210c565b820191906000526020600020905b8154815290600101906020018083116120ef57829003601f168201915b50505050509250818054600181600116156101000203166002900480601f0160208091040260200160405190810160405280929190818152602001828054600181600116156101000203166002900480156121a85780601f1061217d576101008083540402835291602001916121a8565b820191906000526020600020905b81548152906001019060200180831161218b57829003601f168201915b5050505050915094509450945094505b509193509193565b6000809054906101000a900473ffffffffffffffffffffffffffffffffffffffff1673ffffffffffffffffffffffffffffffffffffffff163373ffffffffffffffffffffffffffffffffffffffff16141515612284576040517f08c379a00000000000000000000000000000000000000000000000000000000081526004018080602001828103825260138152602001807f6f776e65722d6f6e6c792066756e6374696f6e0000000000000000000000000081525060200191505060405180910390fd5b806001600201908051906020019061229d9291906134a2565b504260016003018190555050565b60606000806000806006548610151561232c576040517f08c379a000000000000000000000000000000000000000000000000000000000815260040180806020018281038252600f8152602001807f6964206f7574206f662072616e6765000000000000000000000000000000000081525060200191505060405180910390fd5b600d60008781526020019081526020016000208054600181600116156101000203166002900480601f0160208091040260200160405190810160405280929190818152602001828054600181600116156101000203166002900480156123d35780601f106123a8576101008083540402835291602001916123d3565b820191906000526020600020905b8154815290600101906020018083116123b657829003601f168201915b505050505094506000600c866040518082805190602001908083835b60208310151561241457805182526020820191506020810190506020830392506123ef565b6001836020036101000a03801982511681845116808217855250505050505090500191505090815260200160405180910390206005015414156124845760008060008060206040519081016040528060008152509392919083935082925080905094509450945094509450612659565b84600c866040518082805190602001908083835b6020831015156124bd5780518252602082019150602081019050602083039250612498565b6001836020036101000a038019825116818451168082178552505050505050905001915050908152602001604051809103902060020154600c876040518082805190602001908083835b60208310151561252c5780518252602082019150602081019050602083039250612507565b6001836020036101000a038019825116818451168082178552505050505050905001915050908152602001604051809103902060030154600c886040518082805190602001908083835b60208310151561259b5780518252602082019150602081019050602083039250612576565b6001836020036101000a038019825116818451168082178552505050505050905001915050908152602001604051809103902060040160009054906101000a900460ff16600c896040518082805190602001908083835b60208310151561261757805182526020820191506020810190506020830392506125f2565b6001836020036101000a038019825116818451168082178552505050505050905001915050908152602001604051809103902060050154945094509450945094505b91939590929450565b606060008060606000600554861015156126e4576040517f08c379a000000000000000000000000000000000000000000000000000000000815260040180806020018281038252600f8152602001807f6964206f7574206f662072616e6765000000000000000000000000000000000081525060200191505060405180910390fd5b3373ffffffffffffffffffffffffffffffffffffffff16600a600088815260200190815260200160002060010160009054906101000a900473ffffffffffffffffffffffffffffffffffffffff1673ffffffffffffffffffffffffffffffffffffffff161415156127bd576040517f08c379a00000000000000000000000000000000000000000000000000000000081526004018080602001828103825260208152602001807f61636365737320746f20746865207265717565737420646973616c6c6f77656481525060200191505060405180910390fd5b600a6000878152602001908152602001600020600001600a600088815260200190815260200160002060010160009054906101000a900473ffffffffffffffffffffffffffffffffffffffff16600a600089815260200190815260200160002060020154600a60008a8152602001908152602001600020600301600a60008b815260200190815260200160002060040154848054600181600116156101000203166002900480601f0160208091040260200160405190810160405280929190818152602001828054600181600116156101000203166002900480156128e35780601f106128b8576101008083540402835291602001916128e3565b820191906000526020600020905b8154815290600101906020018083116128c657829003601f168201915b50505050509450818054600181600116156101000203166002900480601f01602080910402602001604051908101604052809291908181526020018280546001816001161561010002031660029004801561297f5780601f106129545761010080835404028352916020019161297f565b820191906000526020600020905b81548152906001019060200180831161296257829003601f168201915b505050505091509450945094509450945091939590929450565b6000809054906101000a900473ffffffffffffffffffffffffffffffffffffffff1673ffffffffffffffffffffffffffffffffffffffff163373ffffffffffffffffffffffffffffffffffffffff16141515612a5d576040517f08c379a00000000000000000000000000000000000000000000000000000000081526004018080602001828103825260138152602001807f6f776e65722d6f6e6c792066756e6374696f6e0000000000000000000000000081525060200191505060405180910390fd5b8060088190555050565b60008060009054906101000a900473ffffffffffffffffffffffffffffffffffffffff1673ffffffffffffffffffffffffffffffffffffffff163373ffffffffffffffffffffffffffffffffffffffff16141515612b2d576040517f08c379a00000000000000000000000000000000000000000000000000000000081526004018080602001828103825260138152602001807f6f776e65722d6f6e6c792066756e6374696f6e0000000000000000000000000081525060200191505060405180910390fd5b6000600c846040518082805190602001908083835b602083101515612b675780518252602082019150602081019050602083039250612b42565b6001836020036101000a038019825116818451168082178552505050505050905001915050908152602001604051809103902060050154141515612bae5760009050612cf6565b60c06040519081016040528060065481526020018481526020018381526020016000815260200160011515815260200142815250600c846040518082805190602001908083835b602083101515612c1a5780518252602082019150602081019050602083039250612bf5565b6001836020036101000a0380198251168184511680821785525050505050509050019150509081526020016040518091039020600082015181600001556020820151816001019080519060200190612c73929190613422565b50604082015181600201556060820151816003015560808201518160040160006101000a81548160ff02191690831515021790555060a0820151816005015590505082600d600060065481526020019081526020016000209080519060200190612cde9291906134a2565b50600660008154809291906001019190505550600190505b92915050565b606080606060006001600001600180016001600201600160030154838054600181600116156101000203166002900480601f016020809104026020016040519081016040528092919081815260200182805460018160011615610100020316600290048015612dac5780601f10612d8157610100808354040283529160200191612dac565b820191906000526020600020905b815481529060010190602001808311612d8f57829003601f168201915b50505050509350828054600181600116156101000203166002900480601f016020809104026020016040519081016040528092919081815260200182805460018160011615610100020316600290048015612e485780601f10612e1d57610100808354040283529160200191612e48565b820191906000526020600020905b815481529060010190602001808311612e2b57829003601f168201915b50505050509250818054600181600116156101000203166002900480601f016020809104026020016040519081016040528092919081815260200182805460018160011615610100020316600290048015612ee45780601f10612eb957610100808354040283529160200191612ee4565b820191906000526020600020905b815481529060010190602001808311612ec757829003601f168201915b50505050509150935093509350935090919293565b600080600080600080600c876040518082805190602001908083835b602083101515612f3a5780518252602082019150602081019050602083039250612f15565b6001836020036101000a0380198251168184511680821785525050505050509050019150509081526020016040518091039020600501541415612f9a576000806000806000849450839350829250809050945094509450945094506131dd565b600c866040518082805190602001908083835b602083101515612fd25780518252602082019150602081019050602083039250612fad565b6001836020036101000a038019825116818451168082178552505050505050905001915050908152602001604051809103902060000154600c876040518082805190602001908083835b602083101515613041578051825260208201915060208101905060208303925061301c565b6001836020036101000a038019825116818451168082178552505050505050905001915050908152602001604051809103902060020154600c886040518082805190602001908083835b6020831015156130b0578051825260208201915060208101905060208303925061308b565b6001836020036101000a038019825116818451168082178552505050505050905001915050908152602001604051809103902060030154600c896040518082805190602001908083835b60208310151561311f57805182526020820191506020810190506020830392506130fa565b6001836020036101000a038019825116818451168082178552505050505050905001915050908152602001604051809103902060040160009054906101000a900460ff16600c8a6040518082805190602001908083835b60208310151561319b5780518252602082019150602081019050602083039250613176565b6001836020036101000a038019825116818451168082178552505050505050905001915050908152602001604051809103902060050154945094509450945094505b91939590929450565b6000809054906101000a900473ffffffffffffffffffffffffffffffffffffffff1673ffffffffffffffffffffffffffffffffffffffff163373ffffffffffffffffffffffffffffffffffffffff161415156132aa576040517f08c379a00000000000000000000000000000000000000000000000000000000081526004018080602001828103825260138152602001807f6f776e65722d6f6e6c792066756e6374696f6e0000000000000000000000000081525060200191505060405180910390fd5b426007819055506001600960006101000a81548160ff0219169083151502179055507fcd6b6db9e962bf3317f868c9140c003787641e7ccb209da4d7243d6dbd900c3433604051808273ffffffffffffffffffffffffffffffffffffffff1673ffffffffffffffffffffffffffffffffffffffff16815260200191505060405180910390a1565b6000809054906101000a900473ffffffffffffffffffffffffffffffffffffffff1673ffffffffffffffffffffffffffffffffffffffff163373ffffffffffffffffffffffffffffffffffffffff161415156133f5576040517f08c379a00000000000000000000000000000000000000000000000000000000081526004018080602001828103825260138152602001807f6f776e65722d6f6e6c792066756e6374696f6e0000000000000000000000000081525060200191505060405180910390fd5b806001600001908051906020019061340e9291906134a2565b504260016003018190555050565b60055481565b828054600181600116156101000203166002900490600052602060002090601f016020900481019282601f1061346357805160ff1916838001178555613491565b82800160010185558215613491579182015b82811115613490578251825591602001919060010190613475565b5b50905061349e9190613522565b5090565b828054600181600116156101000203166002900490600052602060002090601f016020900481019282601f106134e357805160ff1916838001178555613511565b82800160010185558215613511579182015b828111156135105782518255916020019190600101906134f5565b5b50905061351e9190613522565b5090565b61354491905b80821115613540576000816000905550600101613528565b5090565b905600a165627a7a723058202c9d8eb598224561152e6a17ad58abaccc3a234e0e620a1af87b7d4448e304a10029",
  "source": "pragma solidity ^0.4.22;\n\n\n// agent for handling request to download resources from owner's local storage\ncontract Agent {\n    // download request\n    struct Request {\n        string resourceHash;\n        address requester;\n        uint timestamp;\n        string host;\n        uint port;\n    }\n    \n    // response to request\n    struct Response {\n        bool success;\n        string url;\n        string token;\n        uint timestamp;\n        bool isFetched;\n    }\n    \n    // state of resource\n    struct ResourceState {\n        uint id;\n        string hash;\n        uint price;\n        uint count;\n        bool available;\n        uint lastModified;\n    }\n    \n    // personality info, avatarHash points to an image\n    struct Profile {\n        string username;\n        string avatarHash;\n        string motto;\n        uint lastModified;\n    }\n    \n    \n    address public owner;\n    Profile profile;\n    \n    // total count of requests to resources\n    uint public requestsCount;\n    \n    function getRequestsCount() public view returns (uint count)\n    {\n        return requestsCount;\n    }\n\n    // total count of owned resources\n    uint public resourcesCount;\n\n    function getResourcesCount() public view returns (uint count)\n    {\n        return resourcesCount;\n    }\n    \n    // timestamp of last valid pulse \n    uint lastPulseTimestamp;\n    \n    function getLastPulseTimestamp() public view returns (uint timestamp)\n    {\n        return lastPulseTimestamp;\n    }\n\n    // max duration between two valid pulse\n    uint timeout;\n    \n    function getTimeout() public view returns (uint curTimeout)\n    {\n        return timeout;\n    }\n\n    function setTimeout(uint val) public onlyOwner\n    {\n        timeout = val;\n    }\n\n    // status of owner's client (online/offline)\n    bool isOnline;\n    \n    // mapping index to request\n    mapping(uint => Request) requests;\n    \n    // mapping request index to response\n    mapping(uint => Response) responses;\n    \n    // mapping resource hash to resource state\n    mapping(string => ResourceState) states;\n    \n    // mapping resource index to its hash\n    mapping(uint => string) hashes;\n    \n    // notify requester that owner has been online\n    event logUserOnline(address user);\n    \n    // notify owner that some user is requesting owner's resources \n    event logRequest(address reqTo);\n    \n    // notify requester that owner has sent a response to the request\n    event logResponse(address resTo);\n    \n    // notify owner that requester has fetched the download url and token\n    event logFetch(address fetchFrom);\n    \n    \n    modifier onlyOwner {\n        require(msg.sender == owner, \"owner-only function\");\n        _;\n    }\n    \n    constructor() public {\n        owner = msg.sender;\n        requestsCount = 0;\n        resourcesCount = 0;\n        timeout = 10000;\n        \n        \n    }\n    \n    function setUsername(string username) public onlyOwner \n    {\n        profile.username = username;\n        profile.lastModified = block.timestamp;\n    }\n    \n    function setAvatar(string avatarHash) public onlyOwner \n    {\n        // disable old avatar\n        states[profile.avatarHash].lastModified = 0;\n        \n        profile.avatarHash = avatarHash;\n        profile.lastModified = block.timestamp;\n        \n        states[avatarHash].lastModified = block.timestamp;\n        states[avatarHash].hash = avatarHash;\n        states[avatarHash].available = true;\n    }\n    \n    function setMotto(string motto) public onlyOwner \n    {\n        profile.motto = motto;\n        profile.lastModified = block.timestamp;\n    }\n    \n    function getProfile() public view returns(string username, string avatarHash, string motto, uint lastModified) {\n        return (profile.username, profile.avatarHash, profile.motto, profile.lastModified);\n    }\n    \n    // owner of the agent send a pulse when online\n    function pulse() public onlyOwner\n    {\n        lastPulseTimestamp = block.timestamp;\n        isOnline = true;\n        emit logUserOnline(msg.sender);\n    }\n    \n    // check whether owner of the agent is online\n    function checkStatus() public returns (bool status)\n    {\n        if (isOnline == false || block.timestamp - lastPulseTimestamp > timeout)\n        {\n            isOnline = false;\n            return false;\n        }\n        return true;\n    }\n    \n    // init state of a resource\n    function initResourceState(string hash, uint price) public onlyOwner returns (bool status) {\n        // the state info has existed and should not be inited again\n        if (states[hash].lastModified != 0) {\n            return false;\n        }\n        states[hash] = ResourceState(resourcesCount, hash, price, 0, true, block.timestamp);\n        hashes[resourcesCount] = hash;\n        resourcesCount++;\n        return true;\n    }\n    \n    // set price of a resource\n    function setPrice(string hash, uint price) public onlyOwner returns (bool status) {\n        // the state info does not exist\n        if (states[hash].lastModified == 0) {\n            return false;\n        }\n        states[hash].price = price;\n        states[hash].lastModified = block.timestamp;\n        return true;\n    }\n    \n    // enable or disable a resource\n    function setAvailable(string hash, bool available) public onlyOwner returns (bool status) {\n        // the state info does not exist\n        if (states[hash].lastModified == 0) {\n            return false;\n        }\n        states[hash].available = available;\n        states[hash].lastModified = block.timestamp;\n        return true;\n    } \n    \n    // get state of a resource by resource hash\n    function getResourceState(string resourceHash) public view returns(uint id, uint price, uint count, bool available, uint lastModified) {\n        // state does not exist\n        if (states[resourceHash].lastModified == 0) {\n            return (0, 0, 0, false, 0);\n        }\n        return (states[resourceHash].id, states[resourceHash].price, states[resourceHash].count, states[resourceHash].available, states[resourceHash].lastModified);\n    }\n    \n    // get state of a resource by resource id\n    function getResourceStateById(uint id) public view returns(string hash, uint price, uint count, bool available, uint lastModified) {\n        require(id < resourcesCount, \"id out of range\");\n        hash = hashes[id];\n        if (states[hash].lastModified == 0) {\n            return (\"\", 0, 0, false, 0);\n        }\n        return (hash, states[hash].price, states[hash].count, states[hash].available, states[hash].lastModified);\n    }\n    \n    // send a request to download the resource from owner's local storage, and wait for response\n    function requestResource(string resourceHash, string host, uint port) public\n    {\n        require(msg.sender != owner, \"invalid sender\");\n        require(states[resourceHash].available, \"resource is now not available\");\n        \n        requests[requestsCount] = Request(resourceHash, msg.sender, block.timestamp, host, port);\n        requestsCount++;\n        emit logRequest(owner);\n    }\n\n    \n    // get a request by its index\n    function getRequest(uint id) public view returns (string resourceHash, address requester, uint timestamp, string host, uint port)\n    {\n        require(id < requestsCount, \"id out of range\");\n        require(requests[id].requester == msg.sender, \"access to the request disallowed\");\n        return (requests[id].resourceHash, requests[id].requester, requests[id].timestamp, requests[id].host, requests[id].port);\n    }\n    \n\n    // the owner puts url and token (for downloading the resource from owner) as response message to the request with index of id \n    function responseResource(uint id, bool success, string url, string token) public onlyOwner\n    {\n        require(id < requestsCount, \"id out of range\");\n\n        responses[id] = Response(success, url, token, block.timestamp, false);\n        emit logResponse(requests[id].requester);\n    }\n    \n    // the requester pays for the resource and fetch response for downloading \n    function fetchResponse(uint id) public payable returns (bool success, string url, string token, uint timestamp)\n    {\n        require(id < requestsCount, \"id out of range\");\n        require(requests[id].requester == msg.sender, \"access to the request disallowed\");\n        require(responses[id].timestamp != 0, \"response does not exist\"); \n        \n        if (responses[id].success == false) \n        {\n            return (false, \"\", \"\", 0);\n        }\n        \n        string memory hash = requests[id].resourceHash;\n        require(msg.value >= states[hash].price, \"you should pay at least the price of the resource\");\n        owner.transfer(msg.value);\n        \n        states[hash].count++;\n        responses[id].isFetched = true;\n        emit logFetch(owner);\n        return (true, responses[id].url, responses[id].token, responses[id].timestamp);\n    }\n\n}    ",
  "sourcePath": "/disk4/home/yop/projects/resource-chain/dapp/contracts/Agent.sol",
  "compiler": {
    "name": "solc",
    "version": "0.4.22+commit.4cb486ee.Emscripten.clang"
  },
  "schemaVersion": "3.0.0",
  "updatedAt": "2018-12-30T17:42:30.115Z",
  "devdoc": {
    "methods": {}
  },
  "userdoc": {
    "methods": {}
  }
}