{
  "contractName": "Agent",
  "abi": [
    {
      "constant": true,
      "inputs": [],
      "name": "resourcesCount",
      "outputs": [
        {
          "name": "",
          "type": "uint256"
        }
      ],
      "payable": false,
      "stateMutability": "view",
      "type": "function",
      "signature": "0x51ac7b8c"
    },
    {
      "constant": true,
      "inputs": [],
      "name": "owner",
      "outputs": [
        {
          "name": "",
          "type": "address"
        }
      ],
      "payable": false,
      "stateMutability": "view",
      "type": "function",
      "signature": "0x8da5cb5b"
    },
    {
      "constant": true,
      "inputs": [],
      "name": "requestsCount",
      "outputs": [
        {
          "name": "",
          "type": "uint256"
        }
      ],
      "payable": false,
      "stateMutability": "view",
      "type": "function",
      "signature": "0xfbfa4b7f"
    },
    {
      "inputs": [],
      "payable": false,
      "stateMutability": "nonpayable",
      "type": "constructor",
      "signature": "constructor"
    },
    {
      "anonymous": false,
      "inputs": [
        {
          "indexed": false,
          "name": "user",
          "type": "address"
        }
      ],
      "name": "logUserOnline",
      "type": "event",
      "signature": "0xcd6b6db9e962bf3317f868c9140c003787641e7ccb209da4d7243d6dbd900c34"
    },
    {
      "anonymous": false,
      "inputs": [
        {
          "indexed": false,
          "name": "reqTo",
          "type": "address"
        }
      ],
      "name": "logRequest",
      "type": "event",
      "signature": "0x83a2da936c6bcf19adffb89f59e768f098beb36b7a21116cdefa0dce46ea6822"
    },
    {
      "anonymous": false,
      "inputs": [
        {
          "indexed": false,
          "name": "resTo",
          "type": "address"
        }
      ],
      "name": "logResponse",
      "type": "event",
      "signature": "0xbdb02053ba609addc9a43c2aeb474c7f5326cadc9337cd66d502545a00b9bf2e"
    },
    {
      "anonymous": false,
      "inputs": [
        {
          "indexed": false,
          "name": "fetchFrom",
          "type": "address"
        }
      ],
      "name": "logFetch",
      "type": "event",
      "signature": "0x8ab7781d00a8f74b1a06d17776a9241bd947864fc6abef4bd1ece3ba9f0e16ba"
    },
    {
      "constant": false,
      "inputs": [
        {
          "name": "username",
          "type": "string"
        }
      ],
      "name": "setUsername",
      "outputs": [],
      "payable": false,
      "stateMutability": "nonpayable",
      "type": "function",
      "signature": "0xed59313a"
    },
    {
      "constant": false,
      "inputs": [
        {
          "name": "avatarHash",
          "type": "string"
        }
      ],
      "name": "setAvatar",
      "outputs": [],
      "payable": false,
      "stateMutability": "nonpayable",
      "type": "function",
      "signature": "0x6ec5239f"
    },
    {
      "constant": false,
      "inputs": [
        {
          "name": "motto",
          "type": "string"
        }
      ],
      "name": "setMotto",
      "outputs": [],
      "payable": false,
      "stateMutability": "nonpayable",
      "type": "function",
      "signature": "0xb8bf81bd"
    },
    {
      "constant": true,
      "inputs": [],
      "name": "getProfile",
      "outputs": [
        {
          "name": "username",
          "type": "string"
        },
        {
          "name": "avatarHash",
          "type": "string"
        },
        {
          "name": "motto",
          "type": "string"
        },
        {
          "name": "lastModified",
          "type": "uint256"
        }
      ],
      "payable": false,
      "stateMutability": "view",
      "type": "function",
      "signature": "0xd6afc9b1"
    },
    {
      "constant": false,
      "inputs": [],
      "name": "pulse",
      "outputs": [],
      "payable": false,
      "stateMutability": "nonpayable",
      "type": "function",
      "signature": "0xdeb189b5"
    },
    {
      "constant": false,
      "inputs": [],
      "name": "checkStatus",
      "outputs": [
        {
          "name": "status",
          "type": "bool"
        }
      ],
      "payable": false,
      "stateMutability": "nonpayable",
      "type": "function",
      "signature": "0x3b7104f2"
    },
    {
      "constant": false,
      "inputs": [
        {
          "name": "hash",
          "type": "string"
        },
        {
          "name": "price",
          "type": "uint256"
        }
      ],
      "name": "initResourceState",
      "outputs": [
        {
          "name": "status",
          "type": "bool"
        }
      ],
      "payable": false,
      "stateMutability": "nonpayable",
      "type": "function",
      "signature": "0xd1a75e20"
    },
    {
      "constant": false,
      "inputs": [
        {
          "name": "hash",
          "type": "string"
        },
        {
          "name": "price",
          "type": "uint256"
        }
      ],
      "name": "setPrice",
      "outputs": [
        {
          "name": "status",
          "type": "bool"
        }
      ],
      "payable": false,
      "stateMutability": "nonpayable",
      "type": "function",
      "signature": "0x22e01192"
    },
    {
      "constant": false,
      "inputs": [
        {
          "name": "hash",
          "type": "string"
        },
        {
          "name": "available",
          "type": "bool"
        }
      ],
      "name": "setAvailable",
      "outputs": [
        {
          "name": "status",
          "type": "bool"
        }
      ],
      "payable": false,
      "stateMutability": "nonpayable",
      "type": "function",
      "signature": "0x41f3c11b"
    },
    {
      "constant": true,
      "inputs": [
        {
          "name": "resourceHash",
          "type": "string"
        }
      ],
      "name": "getResourceState",
      "outputs": [
        {
          "name": "price",
          "type": "uint256"
        },
        {
          "name": "count",
          "type": "uint256"
        },
        {
          "name": "available",
          "type": "bool"
        },
        {
          "name": "timestamp",
          "type": "uint256"
        }
      ],
      "payable": false,
      "stateMutability": "view",
      "type": "function",
      "signature": "0xdb9ddf94"
    },
    {
      "constant": false,
      "inputs": [
        {
          "name": "resourceHash",
          "type": "string"
        },
        {
          "name": "host",
          "type": "string"
        },
        {
          "name": "port",
          "type": "uint256"
        }
      ],
      "name": "requestResource",
      "outputs": [],
      "payable": false,
      "stateMutability": "nonpayable",
      "type": "function",
      "signature": "0x53e4e2e4"
    },
    {
      "constant": true,
      "inputs": [
        {
          "name": "id",
          "type": "uint256"
        }
      ],
      "name": "getRequest",
      "outputs": [
        {
          "name": "resourceHash",
          "type": "string"
        },
        {
          "name": "requester",
          "type": "address"
        },
        {
          "name": "timestamp",
          "type": "uint256"
        },
        {
          "name": "host",
          "type": "string"
        },
        {
          "name": "port",
          "type": "uint256"
        }
      ],
      "payable": false,
      "stateMutability": "view",
      "type": "function",
      "signature": "0xc58343ef"
    },
    {
      "constant": false,
      "inputs": [
        {
          "name": "id",
          "type": "uint256"
        },
        {
          "name": "success",
          "type": "bool"
        },
        {
          "name": "url",
          "type": "string"
        },
        {
          "name": "token",
          "type": "string"
        }
      ],
      "name": "responseResource",
      "outputs": [],
      "payable": false,
      "stateMutability": "nonpayable",
      "type": "function",
      "signature": "0x30cd3d4b"
    },
    {
      "constant": false,
      "inputs": [
        {
          "name": "id",
          "type": "uint256"
        }
      ],
      "name": "fetchResponse",
      "outputs": [
        {
          "name": "success",
          "type": "bool"
        },
        {
          "name": "url",
          "type": "string"
        },
        {
          "name": "token",
          "type": "string"
        },
        {
          "name": "timestamp",
          "type": "uint256"
        }
      ],
      "payable": true,
      "stateMutability": "payable",
      "type": "function",
      "signature": "0x9c4ee22e"
    }
  ],
  "bytecode": "0x608060405234801561001057600080fd5b50336000806101000a81548173ffffffffffffffffffffffffffffffffffffffff021916908373ffffffffffffffffffffffffffffffffffffffff16021790555060006005819055506000600681905550612710600881905550612dc3806100796000396000f3006080604052600436106100f1576000357c0100000000000000000000000000000000000000000000000000000000900463ffffffff16806322e01192146100f657806330cd3d4b146101815780633b7104f21461024657806341f3c11b1461027557806351ac7b8c1461030257806353e4e2e41461032d5780636ec5239f146103e65780638da5cb5b1461044f5780639c4ee22e146104a6578063b8bf81bd146105bd578063c58343ef14610626578063d1a75e2014610779578063d6afc9b114610804578063db9ddf9414610973578063deb189b514610a09578063ed59313a14610a20578063fbfa4b7f14610a89575b600080fd5b34801561010257600080fd5b50610167600480360381019080803590602001908201803590602001908080601f016020809104026020016040519081016040528093929190818152602001838380828437820191505050505050919291929080359060200190929190505050610ab4565b604051808215151515815260200191505060405180910390f35b34801561018d57600080fd5b5061024460048036038101908080359060200190929190803515159060200190929190803590602001908201803590602001908080601f0160208091040260200160405190810160405280939291908181526020018383808284378201915050505050509192919290803590602001908201803590602001908080601f0160208091040260200160405190810160405280939291908181526020018383808284378201915050505050509192919290505050610ceb565b005b34801561025257600080fd5b5061025b610f8e565b604051808215151515815260200191505060405180910390f35b34801561028157600080fd5b506102e8600480360381019080803590602001908201803590602001908080601f0160208091040260200160405190810160405280939291908181526020018383808284378201915050505050509192919290803515159060200190929190505050610fe7565b604051808215151515815260200191505060405180910390f35b34801561030e57600080fd5b50610317611231565b6040518082815260200191505060405180910390f35b34801561033957600080fd5b506103e4600480360381019080803590602001908201803590602001908080601f0160208091040260200160405190810160405280939291908181526020018383808284378201915050505050509192919290803590602001908201803590602001908080601f016020809104026020016040519081016040528093929190818152602001838380828437820191505050505050919291929080359060200190929190505050611237565b005b3480156103f257600080fd5b5061044d600480360381019080803590602001908201803590602001908080601f0160208091040260200160405190810160405280939291908181526020018383808284378201915050505050509192919290505050611572565b005b34801561045b57600080fd5b50610464611856565b604051808273ffffffffffffffffffffffffffffffffffffffff1673ffffffffffffffffffffffffffffffffffffffff16815260200191505060405180910390f35b6104c46004803603810190808035906020019092919050505061187b565b60405180851515151581526020018060200180602001848152602001838103835286818151815260200191508051906020019080838360005b838110156105185780820151818401526020810190506104fd565b50505050905090810190601f1680156105455780820380516001836020036101000a031916815260200191505b50838103825285818151815260200191508051906020019080838360005b8381101561057e578082015181840152602081019050610563565b50505050905090810190601f1680156105ab5780820380516001836020036101000a031916815260200191505b50965050505050505060405180910390f35b3480156105c957600080fd5b50610624600480360381019080803590602001908201803590602001908080601f0160208091040260200160405190810160405280939291908181526020018383808284378201915050505050509192919290505050611f22565b005b34801561063257600080fd5b506106516004803603810190808035906020019092919050505061200d565b60405180806020018673ffffffffffffffffffffffffffffffffffffffff1673ffffffffffffffffffffffffffffffffffffffff16815260200185815260200180602001848152602001838103835288818151815260200191508051906020019080838360005b838110156106d35780820151818401526020810190506106b8565b50505050905090810190601f1680156107005780820380516001836020036101000a031916815260200191505b50838103825285818151815260200191508051906020019080838360005b8381101561073957808201518184015260208101905061071e565b50505050905090810190601f1680156107665780820380516001836020036101000a031916815260200191505b5097505050505050505060405180910390f35b34801561078557600080fd5b506107ea600480360381019080803590602001908201803590602001908080601f016020809104026020016040519081016040528093929190818152602001838380828437820191505050505050919291929080359060200190929190505050612344565b604051808215151515815260200191505060405180910390f35b34801561081057600080fd5b506108196125c7565b60405180806020018060200180602001858152602001848103845288818151815260200191508051906020019080838360005b8381101561086757808201518184015260208101905061084c565b50505050905090810190601f1680156108945780820380516001836020036101000a031916815260200191505b50848103835287818151815260200191508051906020019080838360005b838110156108cd5780820151818401526020810190506108b2565b50505050905090810190601f1680156108fa5780820380516001836020036101000a031916815260200191505b50848103825286818151815260200191508051906020019080838360005b83811015610933578082015181840152602081019050610918565b50505050905090810190601f1680156109605780820380516001836020036101000a031916815260200191505b5097505050505050505060405180910390f35b34801561097f57600080fd5b506109da600480360381019080803590602001908201803590602001908080601f01602080910402602001604051908101604052809392919081815260200183838082843782019150505050505091929192905050506127c4565b604051808581526020018481526020018315151515815260200182815260200194505050505060405180910390f35b348015610a1557600080fd5b50610a1e612a36565b005b348015610a2c57600080fd5b50610a87600480360381019080803590602001908201803590602001908080601f0160208091040260200160405190810160405280939291908181526020018383808284378201915050505050509192919290505050612b81565b005b348015610a9557600080fd5b50610a9e612c6c565b6040518082815260200191505060405180910390f35b60008060009054906101000a900473ffffffffffffffffffffffffffffffffffffffff1673ffffffffffffffffffffffffffffffffffffffff163373ffffffffffffffffffffffffffffffffffffffff16141515610b7a576040517f08c379a00000000000000000000000000000000000000000000000000000000081526004018080602001828103825260138152602001807f6f776e65722d6f6e6c792066756e6374696f6e0000000000000000000000000081525060200191505060405180910390fd5b6000600c846040518082805190602001908083835b602083101515610bb45780518252602082019150602081019050602083039250610b8f565b6001836020036101000a0380198251168184511680821785525050505050509050019150509081526020016040518091039020600401541415610bfa5760009050610ce5565b81600c846040518082805190602001908083835b602083101515610c335780518252602082019150602081019050602083039250610c0e565b6001836020036101000a03801982511681845116808217855250505050505090500191505090815260200160405180910390206001018190555042600c846040518082805190602001908083835b602083101515610ca65780518252602082019150602081019050602083039250610c81565b6001836020036101000a038019825116818451168082178552505050505050905001915050908152602001604051809103902060040181905550600190505b92915050565b6000809054906101000a900473ffffffffffffffffffffffffffffffffffffffff1673ffffffffffffffffffffffffffffffffffffffff163373ffffffffffffffffffffffffffffffffffffffff16141515610daf576040517f08c379a00000000000000000000000000000000000000000000000000000000081526004018080602001828103825260138152602001807f6f776e65722d6f6e6c792066756e6374696f6e0000000000000000000000000081525060200191505060405180910390fd5b60055484101515610e28576040517f08c379a000000000000000000000000000000000000000000000000000000000815260040180806020018281038252600f8152602001807f6964206f7574206f662072616e6765000000000000000000000000000000000081525060200191505060405180910390fd5b60a060405190810160405280841515815260200183815260200182815260200142815260200160001515815250600b600086815260200190815260200160002060008201518160000160006101000a81548160ff0219169083151502179055506020820151816001019080519060200190610ea4929190612c72565b506040820151816002019080519060200190610ec1929190612c72565b506060820151816003015560808201518160040160006101000a81548160ff0219169083151502179055509050507fbdb02053ba609addc9a43c2aeb474c7f5326cadc9337cd66d502545a00b9bf2e600a600086815260200190815260200160002060010160009054906101000a900473ffffffffffffffffffffffffffffffffffffffff16604051808273ffffffffffffffffffffffffffffffffffffffff1673ffffffffffffffffffffffffffffffffffffffff16815260200191505060405180910390a150505050565b6000801515600960009054906101000a900460ff1615151480610fb657506008546007544203115b15610fdf576000600960006101000a81548160ff02191690831515021790555060009050610fe4565b600190505b90565b60008060009054906101000a900473ffffffffffffffffffffffffffffffffffffffff1673ffffffffffffffffffffffffffffffffffffffff163373ffffffffffffffffffffffffffffffffffffffff161415156110ad576040517f08c379a00000000000000000000000000000000000000000000000000000000081526004018080602001828103825260138152602001807f6f776e65722d6f6e6c792066756e6374696f6e0000000000000000000000000081525060200191505060405180910390fd5b6000600c846040518082805190602001908083835b6020831015156110e757805182526020820191506020810190506020830392506110c2565b6001836020036101000a038019825116818451168082178552505050505050905001915050908152602001604051809103902060040154141561112d576000905061122b565b81600c846040518082805190602001908083835b6020831015156111665780518252602082019150602081019050602083039250611141565b6001836020036101000a038019825116818451168082178552505050505050905001915050908152602001604051809103902060030160006101000a81548160ff02191690831515021790555042600c846040518082805190602001908083835b6020831015156111ec57805182526020820191506020810190506020830392506111c7565b6001836020036101000a038019825116818451168082178552505050505050905001915050908152602001604051809103902060040181905550600190505b92915050565b60065481565b6000809054906101000a900473ffffffffffffffffffffffffffffffffffffffff1673ffffffffffffffffffffffffffffffffffffffff163373ffffffffffffffffffffffffffffffffffffffff16141515156112fc576040517f08c379a000000000000000000000000000000000000000000000000000000000815260040180806020018281038252600e8152602001807f696e76616c69642073656e64657200000000000000000000000000000000000081525060200191505060405180910390fd5b600c836040518082805190602001908083835b602083101515611334578051825260208201915060208101905060208303925061130f565b6001836020036101000a038019825116818451168082178552505050505050905001915050908152602001604051809103902060030160009054906101000a900460ff1615156113ec576040517f08c379a000000000000000000000000000000000000000000000000000000000815260040180806020018281038252601d8152602001807f7265736f75726365206973206e6f77206e6f7420617661696c61626c6500000081525060200191505060405180910390fd5b60a0604051908101604052808481526020013373ffffffffffffffffffffffffffffffffffffffff16815260200142815260200183815260200182815250600a60006005548152602001908152602001600020600082015181600001908051906020019061145b929190612c72565b5060208201518160010160006101000a81548173ffffffffffffffffffffffffffffffffffffffff021916908373ffffffffffffffffffffffffffffffffffffffff1602179055506040820151816002015560608201518160030190805190602001906114c9929190612c72565b50608082015181600401559050506005600081548092919060010191905055507f83a2da936c6bcf19adffb89f59e768f098beb36b7a21116cdefa0dce46ea68226000809054906101000a900473ffffffffffffffffffffffffffffffffffffffff16604051808273ffffffffffffffffffffffffffffffffffffffff1673ffffffffffffffffffffffffffffffffffffffff16815260200191505060405180910390a1505050565b6000809054906101000a900473ffffffffffffffffffffffffffffffffffffffff1673ffffffffffffffffffffffffffffffffffffffff163373ffffffffffffffffffffffffffffffffffffffff16141515611636576040517f08c379a00000000000000000000000000000000000000000000000000000000081526004018080602001828103825260138152602001807f6f776e65722d6f6e6c792066756e6374696f6e0000000000000000000000000081525060200191505060405180910390fd5b6000600c6001800160405180828054600181600116156101000203166002900480156116995780601f10611677576101008083540402835291820191611699565b820191906000526020600020905b815481529060010190602001808311611685575b5050915050908152602001604051809103902060040181905550806001800190805190602001906116cb929190612cf2565b504260016003018190555042600c826040518082805190602001908083835b60208310151561170f57805182526020820191506020810190506020830392506116ea565b6001836020036101000a03801982511681845116808217855250505050505090500191505090815260200160405180910390206004018190555080600c826040518082805190602001908083835b602083101515611782578051825260208201915060208101905060208303925061175d565b6001836020036101000a038019825116818451168082178552505050505050905001915050908152602001604051809103902060000190805190602001906117cb929190612cf2565b506001600c826040518082805190602001908083835b60208310151561180657805182526020820191506020810190506020830392506117e1565b6001836020036101000a038019825116818451168082178552505050505050905001915050908152602001604051809103902060030160006101000a81548160ff02191690831515021790555050565b6000809054906101000a900473ffffffffffffffffffffffffffffffffffffffff1681565b6000606080600080600554861015156118fc576040517f08c379a000000000000000000000000000000000000000000000000000000000815260040180806020018281038252600f8152602001807f6964206f7574206f662072616e6765000000000000000000000000000000000081525060200191505060405180910390fd5b3373ffffffffffffffffffffffffffffffffffffffff16600a600088815260200190815260200160002060010160009054906101000a900473ffffffffffffffffffffffffffffffffffffffff1673ffffffffffffffffffffffffffffffffffffffff161415156119d5576040517f08c379a00000000000000000000000000000000000000000000000000000000081526004018080602001828103825260208152602001807f61636365737320746f20746865207265717565737420646973616c6c6f77656481525060200191505060405180910390fd5b6000600b60008881526020019081526020016000206003015414151515611a64576040517f08c379a00000000000000000000000000000000000000000000000000000000081526004018080602001828103825260178152602001807f726573706f6e736520646f6573206e6f7420657869737400000000000000000081525060200191505060405180910390fd5b60001515600b600088815260200190815260200160002060000160009054906101000a900460ff1615151415611acb576000806020604051908101604052806000815250906020604051908101604052806000815250908090509450945094509450611f1a565b600a60008781526020019081526020016000206000019050600c816040518082805460018160011615610100020316600290048015611b415780601f10611b1f576101008083540402835291820191611b41565b820191906000526020600020905b815481529060010190602001808311611b2d575b50509150509081526020016040518091039020600101543410151515611bf5576040517f08c379a00000000000000000000000000000000000000000000000000000000081526004018080602001828103825260318152602001807f796f752073686f756c6420706179206174206c6561737420746865207072696381526020017f65206f6620746865207265736f7572636500000000000000000000000000000081525060400191505060405180910390fd5b6000809054906101000a900473ffffffffffffffffffffffffffffffffffffffff1673ffffffffffffffffffffffffffffffffffffffff166108fc349081150290604051600060405180830381858888f19350505050158015611c5c573d6000803e3d6000fd5b50600c816040518082805460018160011615610100020316600290048015611cbb5780601f10611c99576101008083540402835291820191611cbb565b820191906000526020600020905b815481529060010190602001808311611ca7575b50509150509081526020016040518091039020600201600081548092919060010191905055506001600b600088815260200190815260200160002060040160006101000a81548160ff0219169083151502179055507f8ab7781d00a8f74b1a06d17776a9241bd947864fc6abef4bd1ece3ba9f0e16ba6000809054906101000a900473ffffffffffffffffffffffffffffffffffffffff16604051808273ffffffffffffffffffffffffffffffffffffffff1673ffffffffffffffffffffffffffffffffffffffff16815260200191505060405180910390a16001600b6000888152602001908152602001600020600101600b6000898152602001908152602001600020600201600b60008a815260200190815260200160002060030154828054600181600116156101000203166002900480601f016020809104026020016040519081016040528092919081815260200182805460018160011615610100020316600290048015611e6e5780601f10611e4357610100808354040283529160200191611e6e565b820191906000526020600020905b815481529060010190602001808311611e5157829003601f168201915b50505050509250818054600181600116156101000203166002900480601f016020809104026020016040519081016040528092919081815260200182805460018160011615610100020316600290048015611f0a5780601f10611edf57610100808354040283529160200191611f0a565b820191906000526020600020905b815481529060010190602001808311611eed57829003601f168201915b5050505050915094509450945094505b509193509193565b6000809054906101000a900473ffffffffffffffffffffffffffffffffffffffff1673ffffffffffffffffffffffffffffffffffffffff163373ffffffffffffffffffffffffffffffffffffffff16141515611fe6576040517f08c379a00000000000000000000000000000000000000000000000000000000081526004018080602001828103825260138152602001807f6f776e65722d6f6e6c792066756e6374696f6e0000000000000000000000000081525060200191505060405180910390fd5b8060016002019080519060200190611fff929190612cf2565b504260016003018190555050565b6060600080606060006005548610151561208f576040517f08c379a000000000000000000000000000000000000000000000000000000000815260040180806020018281038252600f8152602001807f6964206f7574206f662072616e6765000000000000000000000000000000000081525060200191505060405180910390fd5b3373ffffffffffffffffffffffffffffffffffffffff16600a600088815260200190815260200160002060010160009054906101000a900473ffffffffffffffffffffffffffffffffffffffff1673ffffffffffffffffffffffffffffffffffffffff16141515612168576040517f08c379a00000000000000000000000000000000000000000000000000000000081526004018080602001828103825260208152602001807f61636365737320746f20746865207265717565737420646973616c6c6f77656481525060200191505060405180910390fd5b600a6000878152602001908152602001600020600001600a600088815260200190815260200160002060010160009054906101000a900473ffffffffffffffffffffffffffffffffffffffff16600a600089815260200190815260200160002060020154600a60008a8152602001908152602001600020600301600a60008b815260200190815260200160002060040154848054600181600116156101000203166002900480601f01602080910402602001604051908101604052809291908181526020018280546001816001161561010002031660029004801561228e5780601f106122635761010080835404028352916020019161228e565b820191906000526020600020905b81548152906001019060200180831161227157829003601f168201915b50505050509450818054600181600116156101000203166002900480601f01602080910402602001604051908101604052809291908181526020018280546001816001161561010002031660029004801561232a5780601f106122ff5761010080835404028352916020019161232a565b820191906000526020600020905b81548152906001019060200180831161230d57829003601f168201915b505050505091509450945094509450945091939590929450565b60008060009054906101000a900473ffffffffffffffffffffffffffffffffffffffff1673ffffffffffffffffffffffffffffffffffffffff163373ffffffffffffffffffffffffffffffffffffffff1614151561240a576040517f08c379a00000000000000000000000000000000000000000000000000000000081526004018080602001828103825260138152602001807f6f776e65722d6f6e6c792066756e6374696f6e0000000000000000000000000081525060200191505060405180910390fd5b6000600c846040518082805190602001908083835b602083101515612444578051825260208201915060208101905060208303925061241f565b6001836020036101000a03801982511681845116808217855250505050505090500191505090815260200160405180910390206004015414151561248b57600090506125c1565b60a0604051908101604052808481526020018381526020016000815260200160011515815260200142815250600c846040518082805190602001908083835b6020831015156124ef57805182526020820191506020810190506020830392506124ca565b6001836020036101000a0380198251168184511680821785525050505050509050019150509081526020016040518091039020600082015181600001908051906020019061253e929190612c72565b50602082015181600101556040820151816002015560608201518160030160006101000a81548160ff0219169083151502179055506080820151816004015590505082600d6000600654815260200190815260200160002090805190602001906125a9929190612cf2565b50600660008154809291906001019190505550600190505b92915050565b606080606060006001600001600180016001600201600160030154838054600181600116156101000203166002900480601f0160208091040260200160405190810160405280929190818152602001828054600181600116156101000203166002900480156126775780601f1061264c57610100808354040283529160200191612677565b820191906000526020600020905b81548152906001019060200180831161265a57829003601f168201915b50505050509350828054600181600116156101000203166002900480601f0160208091040260200160405190810160405280929190818152602001828054600181600116156101000203166002900480156127135780601f106126e857610100808354040283529160200191612713565b820191906000526020600020905b8154815290600101906020018083116126f657829003601f168201915b50505050509250818054600181600116156101000203166002900480601f0160208091040260200160405190810160405280929190818152602001828054600181600116156101000203166002900480156127af5780601f10612784576101008083540402835291602001916127af565b820191906000526020600020905b81548152906001019060200180831161279257829003601f168201915b50505050509150935093509350935090919293565b6000806000806000600c866040518082805190602001908083835b60208310151561280457805182526020820191506020810190506020830392506127df565b6001836020036101000a038019825116818451168082178552505050505050905001915050908152602001604051809103902060040154141561285d576000806000808393508292508090509350935093509350612a2f565b600c856040518082805190602001908083835b6020831015156128955780518252602082019150602081019050602083039250612870565b6001836020036101000a038019825116818451168082178552505050505050905001915050908152602001604051809103902060010154600c866040518082805190602001908083835b60208310151561290457805182526020820191506020810190506020830392506128df565b6001836020036101000a038019825116818451168082178552505050505050905001915050908152602001604051809103902060020154600c876040518082805190602001908083835b602083101515612973578051825260208201915060208101905060208303925061294e565b6001836020036101000a038019825116818451168082178552505050505050905001915050908152602001604051809103902060030160009054906101000a900460ff16600c886040518082805190602001908083835b6020831015156129ef57805182526020820191506020810190506020830392506129ca565b6001836020036101000a03801982511681845116808217855250505050505090500191505090815260200160405180910390206004015493509350935093505b9193509193565b6000809054906101000a900473ffffffffffffffffffffffffffffffffffffffff1673ffffffffffffffffffffffffffffffffffffffff163373ffffffffffffffffffffffffffffffffffffffff16141515612afa576040517f08c379a00000000000000000000000000000000000000000000000000000000081526004018080602001828103825260138152602001807f6f776e65722d6f6e6c792066756e6374696f6e0000000000000000000000000081525060200191505060405180910390fd5b426007819055506001600960006101000a81548160ff0219169083151502179055507fcd6b6db9e962bf3317f868c9140c003787641e7ccb209da4d7243d6dbd900c3433604051808273ffffffffffffffffffffffffffffffffffffffff1673ffffffffffffffffffffffffffffffffffffffff16815260200191505060405180910390a1565b6000809054906101000a900473ffffffffffffffffffffffffffffffffffffffff1673ffffffffffffffffffffffffffffffffffffffff163373ffffffffffffffffffffffffffffffffffffffff16141515612c45576040517f08c379a00000000000000000000000000000000000000000000000000000000081526004018080602001828103825260138152602001807f6f776e65722d6f6e6c792066756e6374696f6e0000000000000000000000000081525060200191505060405180910390fd5b8060016000019080519060200190612c5e929190612cf2565b504260016003018190555050565b60055481565b828054600181600116156101000203166002900490600052602060002090601f016020900481019282601f10612cb357805160ff1916838001178555612ce1565b82800160010185558215612ce1579182015b82811115612ce0578251825591602001919060010190612cc5565b5b509050612cee9190612d72565b5090565b828054600181600116156101000203166002900490600052602060002090601f016020900481019282601f10612d3357805160ff1916838001178555612d61565b82800160010185558215612d61579182015b82811115612d60578251825591602001919060010190612d45565b5b509050612d6e9190612d72565b5090565b612d9491905b80821115612d90576000816000905550600101612d78565b5090565b905600a165627a7a7230582037d8eecc7bcd0cf8066b2b0a8512dc9dbaa92ccd5e6daa3597bbc37a365dd42c0029",
  "source": "pragma solidity ^0.4.22;\n\n\n// agent for handling request to download resources from owner's local storage\ncontract Agent {\n    // download request\n    struct Request {\n        string resourceHash;\n        address requester;\n        uint timestamp;\n        string host;\n        uint port;\n    }\n    \n    // response to request\n    struct Response {\n        bool success;\n        string url;\n        string token;\n        uint timestamp;\n        bool isFetched;\n    }\n    \n    // state of resource\n    struct ResourceState {\n        string hash;\n        uint price;\n        uint count;\n        bool available;\n        uint lastModified;\n    }\n    \n    // personality info, avatarHash points to an image\n    struct Profile {\n        string username;\n        string avatarHash;\n        string motto;\n        uint lastModified;\n    }\n    \n    \n    address public owner;\n    Profile profile;\n    \n    // total count of requests to resources\n    uint public requestsCount;\n    \n    // total count of owned resources\n    uint public resourcesCount;\n    \n    // timestamp of last valid pulse \n    uint lastPulseTimestamp;\n    \n    // max duration between two valid pulse\n    uint timeout;\n    \n    // status of owner's client (online/offline)\n    bool isOnline;\n    \n    // mapping index to request\n    mapping(uint => Request) requests;\n    \n    // mapping request index to response\n    mapping(uint => Response) responses;\n    \n    // mapping resource hash to resource state\n    mapping(string => ResourceState) states;\n    \n    // mapping resource index to its hash\n    mapping(uint => string) hashes;\n    \n    // notify requester that owner has been online\n    event logUserOnline(address user);\n    \n    // notify owner that some user is requesting owner's resources \n    event logRequest(address reqTo);\n    \n    // notify requester that owner has sent a response to the request\n    event logResponse(address resTo);\n    \n    // notify owner that requester has fetched the download url and token\n    event logFetch(address fetchFrom);\n    \n    \n    modifier onlyOwner {\n        require(msg.sender == owner, \"owner-only function\");\n        _;\n    }\n    \n    constructor() public {\n        owner = msg.sender;\n        requestsCount = 0;\n        resourcesCount = 0;\n        timeout = 10000;\n        \n        \n    }\n    \n    function setUsername(string username) public onlyOwner \n    {\n        profile.username = username;\n        profile.lastModified = block.timestamp;\n    }\n    \n    function setAvatar(string avatarHash) public onlyOwner \n    {\n        // disable old avatar\n        states[profile.avatarHash].lastModified = 0;\n        \n        profile.avatarHash = avatarHash;\n        profile.lastModified = block.timestamp;\n        \n        states[avatarHash].lastModified = block.timestamp;\n        states[avatarHash].hash = avatarHash;\n        states[avatarHash].available = true;\n    }\n    \n    function setMotto(string motto) public onlyOwner \n    {\n        profile.motto = motto;\n        profile.lastModified = block.timestamp;\n    }\n    \n    function getProfile() public view returns(string username, string avatarHash, string motto, uint lastModified) {\n        return (profile.username, profile.avatarHash, profile.motto, profile.lastModified);\n    }\n    \n    // owner of the agent send a pulse when online\n    function pulse() public onlyOwner\n    {\n        lastPulseTimestamp = block.timestamp;\n        isOnline = true;\n        emit logUserOnline(msg.sender);\n    }\n    \n    // check whether owner of the agent is online\n    function checkStatus() public returns (bool status)\n    {\n        if (isOnline == false || block.timestamp - lastPulseTimestamp > timeout)\n        {\n            isOnline = false;\n            return false;\n        }\n        return true;\n    }\n    \n    // init state of a resource\n    function initResourceState(string hash, uint price) public onlyOwner returns (bool status) {\n        // the state info has existed and should not be inited again\n        if (states[hash].lastModified != 0) {\n            return false;\n        }\n        states[hash] = ResourceState(hash, price, 0, true, block.timestamp);\n        hashes[resourcesCount] = hash;\n        resourcesCount++;\n        return true;\n    }\n    \n    // set price of a resource\n    function setPrice(string hash, uint price) public onlyOwner returns (bool status) {\n        // the state info does not exist\n        if (states[hash].lastModified == 0) {\n            return false;\n        }\n        states[hash].price = price;\n        states[hash].lastModified = block.timestamp;\n        return true;\n    }\n    \n    // enable or disable a resource\n    function setAvailable(string hash, bool available) public onlyOwner returns (bool status) {\n        // the state info does not exist\n        if (states[hash].lastModified == 0) {\n            return false;\n        }\n        states[hash].available = available;\n        states[hash].lastModified = block.timestamp;\n        return true;\n    } \n    \n    // get state of a resource by resource hash\n    function getResourceState(string resourceHash) public view returns(uint price, uint count, bool available, uint timestamp) {\n        // state does not exist\n        if (states[resourceHash].lastModified == 0) {\n            return (0, 0, false, 0);\n        }\n        return (states[resourceHash].price, states[resourceHash].count, states[resourceHash].available, states[resourceHash].lastModified);\n    }\n    \n    \n    // send a request to download the resource from owner's local storage, and wait for response\n    function requestResource(string resourceHash, string host, uint port) public\n    {\n        require(msg.sender != owner, \"invalid sender\");\n        require(states[resourceHash].available, \"resource is now not available\");\n        \n        requests[requestsCount] = Request(resourceHash, msg.sender, block.timestamp, host, port);\n        requestsCount++;\n        emit logRequest(owner);\n    }\n\n    \n    // get a request by its index\n    function getRequest(uint id) public view returns (string resourceHash, address requester, uint timestamp, string host, uint port)\n    {\n        require(id < requestsCount, \"id out of range\");\n        require(requests[id].requester == msg.sender, \"access to the request disallowed\");\n        return (requests[id].resourceHash, requests[id].requester, requests[id].timestamp, requests[id].host, requests[id].port);\n    }\n    \n\n    // the owner puts url and token (for downloading the resource from owner) as response message to the request with index of id \n    function responseResource(uint id, bool success, string url, string token) public onlyOwner\n    {\n        require(id < requestsCount, \"id out of range\");\n\n        responses[id] = Response(success, url, token, block.timestamp, false);\n        emit logResponse(requests[id].requester);\n    }\n    \n    // the requester pays for the resource and fetch response for downloading \n    function fetchResponse(uint id) public payable returns (bool success, string url, string token, uint timestamp)\n    {\n        require(id < requestsCount, \"id out of range\");\n        require(requests[id].requester == msg.sender, \"access to the request disallowed\");\n        require(responses[id].timestamp != 0, \"response does not exist\"); \n        \n        if (responses[id].success == false) \n        {\n            return (false, \"\", \"\", 0);\n        }\n        \n        string storage hash = requests[id].resourceHash;\n        require(msg.value >= states[hash].price, \"you should pay at least the price of the resource\");\n        owner.transfer(msg.value);\n        \n        states[hash].count++;\n        responses[id].isFetched = true;\n        emit logFetch(owner);\n        return (true, responses[id].url, responses[id].token, responses[id].timestamp);\n    }\n\n}    ",
  "sourcePath": "/disk4/home/yop/projects/resource-chain/dapp/contracts/Agent.sol",
  "compiler": {
    "name": "solc",
    "version": "0.4.22+commit.4cb486ee.Emscripten.clang"
  },
  "schemaVersion": "3.0.0",
  "updatedAt": "2018-12-26T15:42:25.766Z",
  "devdoc": {
    "methods": {}
  },
  "userdoc": {
    "methods": {}
  }
}