{
  "contractName": "ResourceManager",
  "abi": [
    {
      "constant": true,
      "inputs": [],
      "name": "resourcesCount",
      "outputs": [
        {
          "name": "",
          "type": "uint256"
        }
      ],
      "payable": false,
      "stateMutability": "view",
      "type": "function",
      "signature": "0x51ac7b8c"
    },
    {
      "inputs": [],
      "payable": false,
      "stateMutability": "nonpayable",
      "type": "constructor",
      "signature": "constructor"
    },
    {
      "anonymous": false,
      "inputs": [],
      "name": "logResourceUpload",
      "type": "event",
      "signature": "0x49dedf50ed242d178ad5f1e38f3d37c673402e4a1168413f578dc56a05eedc79"
    },
    {
      "anonymous": false,
      "inputs": [
        {
          "indexed": false,
          "name": "owner",
          "type": "address"
        },
        {
          "indexed": false,
          "name": "agent",
          "type": "address"
        }
      ],
      "name": "logRegisterAgent",
      "type": "event",
      "signature": "0x22070b6cf9b1647bc74ad0d2038c940cd37b676561ae60d75b2cf1d908843760"
    },
    {
      "constant": false,
      "inputs": [
        {
          "name": "hash",
          "type": "string"
        },
        {
          "name": "name",
          "type": "string"
        },
        {
          "name": "size",
          "type": "uint256"
        },
        {
          "name": "description",
          "type": "string"
        },
        {
          "name": "tags",
          "type": "string"
        }
      ],
      "name": "uploadResourceInfo",
      "outputs": [
        {
          "name": "status",
          "type": "bool"
        }
      ],
      "payable": false,
      "stateMutability": "nonpayable",
      "type": "function",
      "signature": "0xb734cdae"
    },
    {
      "constant": true,
      "inputs": [],
      "name": "getResourcesCount",
      "outputs": [
        {
          "name": "count",
          "type": "uint256"
        }
      ],
      "payable": false,
      "stateMutability": "view",
      "type": "function",
      "signature": "0x14ced016"
    },
    {
      "constant": true,
      "inputs": [
        {
          "name": "hash",
          "type": "string"
        }
      ],
      "name": "getResourceInfoByHash",
      "outputs": [
        {
          "name": "id",
          "type": "uint256"
        },
        {
          "name": "timestamp",
          "type": "uint256"
        },
        {
          "name": "name",
          "type": "string"
        },
        {
          "name": "size",
          "type": "uint256"
        },
        {
          "name": "description",
          "type": "string"
        },
        {
          "name": "tags",
          "type": "string"
        },
        {
          "name": "agent",
          "type": "address"
        }
      ],
      "payable": false,
      "stateMutability": "view",
      "type": "function",
      "signature": "0xb6abdc07"
    },
    {
      "constant": true,
      "inputs": [
        {
          "name": "id",
          "type": "uint256"
        }
      ],
      "name": "getResourceInfoById",
      "outputs": [
        {
          "name": "hash",
          "type": "string"
        },
        {
          "name": "owner",
          "type": "address"
        },
        {
          "name": "timestamp",
          "type": "uint256"
        },
        {
          "name": "name",
          "type": "string"
        },
        {
          "name": "size",
          "type": "uint256"
        },
        {
          "name": "description",
          "type": "string"
        },
        {
          "name": "tags",
          "type": "string"
        },
        {
          "name": "agent",
          "type": "address"
        }
      ],
      "payable": false,
      "stateMutability": "view",
      "type": "function",
      "signature": "0x3378bcd0"
    },
    {
      "constant": false,
      "inputs": [
        {
          "name": "agent",
          "type": "address"
        }
      ],
      "name": "registerAgent",
      "outputs": [
        {
          "name": "status",
          "type": "bool"
        }
      ],
      "payable": false,
      "stateMutability": "nonpayable",
      "type": "function",
      "signature": "0x306b9bb9"
    }
  ],
  "bytecode": "0x608060405234801561001057600080fd5b50600060038190555061194e806100286000396000f300608060405260043610610078576000357c0100000000000000000000000000000000000000000000000000000000900463ffffffff16806314ced0161461007d578063306b9bb9146100a85780633378bcd01461010357806351ac7b8c14610361578063b6abdc071461038c578063b734cdae1461058e575b600080fd5b34801561008957600080fd5b506100926106eb565b6040518082815260200191505060405180910390f35b3480156100b457600080fd5b506100e9600480360381019080803573ffffffffffffffffffffffffffffffffffffffff1690602001909291905050506106f5565b604051808215151515815260200191505060405180910390f35b34801561010f57600080fd5b5061012e60048036038101908080359060200190929190505050610854565b60405180806020018973ffffffffffffffffffffffffffffffffffffffff1673ffffffffffffffffffffffffffffffffffffffff1681526020018881526020018060200187815260200180602001806020018673ffffffffffffffffffffffffffffffffffffffff1673ffffffffffffffffffffffffffffffffffffffff16815260200185810385528d818151815260200191508051906020019080838360005b838110156101ea5780820151818401526020810190506101cf565b50505050905090810190601f1680156102175780820380516001836020036101000a031916815260200191505b5085810384528a818151815260200191508051906020019080838360005b83811015610250578082015181840152602081019050610235565b50505050905090810190601f16801561027d5780820380516001836020036101000a031916815260200191505b50858103835288818151815260200191508051906020019080838360005b838110156102b657808201518184015260208101905061029b565b50505050905090810190601f1680156102e35780820380516001836020036101000a031916815260200191505b50858103825287818151815260200191508051906020019080838360005b8381101561031c578082015181840152602081019050610301565b50505050905090810190601f1680156103495780820380516001836020036101000a031916815260200191505b509c5050505050505050505050505060405180910390f35b34801561036d57600080fd5b50610376610ec2565b6040518082815260200191505060405180910390f35b34801561039857600080fd5b506103f3600480360381019080803590602001908201803590602001908080601f0160208091040260200160405190810160405280939291908181526020018383808284378201915050505050509192919290505050610ec8565b604051808881526020018781526020018060200186815260200180602001806020018573ffffffffffffffffffffffffffffffffffffffff1673ffffffffffffffffffffffffffffffffffffffff168152602001848103845289818151815260200191508051906020019080838360005b8381101561047f578082015181840152602081019050610464565b50505050905090810190601f1680156104ac5780820380516001836020036101000a031916815260200191505b50848103835287818151815260200191508051906020019080838360005b838110156104e55780820151818401526020810190506104ca565b50505050905090810190601f1680156105125780820380516001836020036101000a031916815260200191505b50848103825286818151815260200191508051906020019080838360005b8381101561054b578082015181840152602081019050610530565b50505050905090810190601f1680156105785780820380516001836020036101000a031916815260200191505b509a505050505050505050505060405180910390f35b34801561059a57600080fd5b506106d1600480360381019080803590602001908201803590602001908080601f0160208091040260200160405190810160405280939291908181526020018383808284378201915050505050509192919290803590602001908201803590602001908080601f016020809104026020016040519081016040528093929190818152602001838380828437820191505050505050919291929080359060200190929190803590602001908201803590602001908080601f0160208091040260200160405190810160405280939291908181526020018383808284378201915050505050509192919290803590602001908201803590602001908080601f01602080910402602001604051908101604052809392919081815260200183838082843782019150505050505091929192905050506114d3565b604051808215151515815260200191505060405180910390f35b6000600354905090565b60008073ffffffffffffffffffffffffffffffffffffffff168273ffffffffffffffffffffffffffffffffffffffff1614151561084a5781600160003373ffffffffffffffffffffffffffffffffffffffff1673ffffffffffffffffffffffffffffffffffffffff16815260200190815260200160002060006101000a81548173ffffffffffffffffffffffffffffffffffffffff021916908373ffffffffffffffffffffffffffffffffffffffff1602179055507f22070b6cf9b1647bc74ad0d2038c940cd37b676561ae60d75b2cf1d9088437603383604051808373ffffffffffffffffffffffffffffffffffffffff1673ffffffffffffffffffffffffffffffffffffffff1681526020018273ffffffffffffffffffffffffffffffffffffffff1673ffffffffffffffffffffffffffffffffffffffff1681526020019250505060405180910390a16001905061084f565b600090505b919050565b6060600080606060006060806000600354891015156108db576040517f08c379a000000000000000000000000000000000000000000000000000000000815260040180806020018281038252600f8152602001807f6964206f7574206f662072616e6765000000000000000000000000000000000081525060200191505060405180910390fd5b600260008a81526020019081526020016000208054600181600116156101000203166002900480601f0160208091040260200160405190810160405280929190818152602001828054600181600116156101000203166002900480156109825780601f1061095757610100808354040283529160200191610982565b820191906000526020600020905b81548152906001019060200180831161096557829003601f168201915b505050505097506000886040518082805190602001908083835b6020831015156109c1578051825260208201915060208101905060208303925061099c565b6001836020036101000a038019825116818451168082178552505050505050905001915050908152602001604051809103902060010160009054906101000a900473ffffffffffffffffffffffffffffffffffffffff169650878760008a6040518082805190602001908083835b602083101515610a545780518252602082019150602081019050602083039250610a2f565b6001836020036101000a03801982511681845116808217855250505050505090500191505090815260200160405180910390206002015460008b6040518082805190602001908083835b602083101515610ac35780518252602082019150602081019050602083039250610a9e565b6001836020036101000a038019825116818451168082178552505050505050905001915050908152602001604051809103902060030160008c6040518082805190602001908083835b602083101515610b315780518252602082019150602081019050602083039250610b0c565b6001836020036101000a03801982511681845116808217855250505050505090500191505090815260200160405180910390206004015460008d6040518082805190602001908083835b602083101515610ba05780518252602082019150602081019050602083039250610b7b565b6001836020036101000a038019825116818451168082178552505050505050905001915050908152602001604051809103902060050160008e6040518082805190602001908083835b602083101515610c0e5780518252602082019150602081019050602083039250610be9565b6001836020036101000a038019825116818451168082178552505050505050905001915050908152602001604051809103902060060160008f6040518082805190602001908083835b602083101515610c7c5780518252602082019150602081019050602083039250610c57565b6001836020036101000a038019825116818451168082178552505050505050905001915050908152602001604051809103902060070160009054906101000a900473ffffffffffffffffffffffffffffffffffffffff16848054600181600116156101000203166002900480601f016020809104026020016040519081016040528092919081815260200182805460018160011615610100020316600290048015610d685780601f10610d3d57610100808354040283529160200191610d68565b820191906000526020600020905b815481529060010190602001808311610d4b57829003601f168201915b50505050509450828054600181600116156101000203166002900480601f016020809104026020016040519081016040528092919081815260200182805460018160011615610100020316600290048015610e045780601f10610dd957610100808354040283529160200191610e04565b820191906000526020600020905b815481529060010190602001808311610de757829003601f168201915b50505050509250818054600181600116156101000203166002900480601f016020809104026020016040519081016040528092919081815260200182805460018160011615610100020316600290048015610ea05780601f10610e7557610100808354040283529160200191610ea0565b820191906000526020600020905b815481529060010190602001808311610e8357829003601f168201915b5050505050915097509750975097509750975097509750919395975091939597565b60035481565b600080606060006060806000806000896040518082805190602001908083835b602083101515610f0d5780518252602082019150602081019050602083039250610ee8565b6001836020036101000a03801982511681845116808217855250505050505090500191505090815260200160405180910390206002015414151515610fba576040517f08c379a00000000000000000000000000000000000000000000000000000000081526004018080602001828103825260178152602001807f7265736f7572636520646f6573206e6f7420657869737400000000000000000081525060200191505060405180910390fd5b6000886040518082805190602001908083835b602083101515610ff25780518252602082019150602081019050602083039250610fcd565b6001836020036101000a03801982511681845116808217855250505050505090500191505090815260200160405180910390206000015496506000886040518082805190602001908083835b602083101515611063578051825260208201915060208101905060208303925061103e565b6001836020036101000a0380198251168184511680821785525050505050509050019150509081526020016040518091039020600201549550868660008a6040518082805190602001908083835b6020831015156110d657805182526020820191506020810190506020830392506110b1565b6001836020036101000a038019825116818451168082178552505050505050905001915050908152602001604051809103902060030160008b6040518082805190602001908083835b602083101515611144578051825260208201915060208101905060208303925061111f565b6001836020036101000a03801982511681845116808217855250505050505090500191505090815260200160405180910390206004015460008c6040518082805190602001908083835b6020831015156111b3578051825260208201915060208101905060208303925061118e565b6001836020036101000a038019825116818451168082178552505050505050905001915050908152602001604051809103902060050160008d6040518082805190602001908083835b60208310151561122157805182526020820191506020810190506020830392506111fc565b6001836020036101000a038019825116818451168082178552505050505050905001915050908152602001604051809103902060060160008e6040518082805190602001908083835b60208310151561128f578051825260208201915060208101905060208303925061126a565b6001836020036101000a038019825116818451168082178552505050505050905001915050908152602001604051809103902060070160009054906101000a900473ffffffffffffffffffffffffffffffffffffffff16848054600181600116156101000203166002900480601f01602080910402602001604051908101604052809291908181526020018280546001816001161561010002031660029004801561137b5780601f106113505761010080835404028352916020019161137b565b820191906000526020600020905b81548152906001019060200180831161135e57829003601f168201915b50505050509450828054600181600116156101000203166002900480601f0160208091040260200160405190810160405280929190818152602001828054600181600116156101000203166002900480156114175780601f106113ec57610100808354040283529160200191611417565b820191906000526020600020905b8154815290600101906020018083116113fa57829003601f168201915b50505050509250818054600181600116156101000203166002900480601f0160208091040260200160405190810160405280929190818152602001828054600181600116156101000203166002900480156114b35780601f10611488576101008083540402835291602001916114b3565b820191906000526020600020905b81548152906001019060200180831161149657829003601f168201915b505050505091509650965096509650965096509650919395979092949650565b6000806000876040518082805190602001908083835b60208310151561150e57805182526020820191506020810190506020830392506114e9565b6001836020036101000a03801982511681845116808217855250505050505090500191505090815260200160405180910390206002015414156117ef576101006040519081016040528060035481526020013373ffffffffffffffffffffffffffffffffffffffff168152602001428152602001868152602001858152602001848152602001838152602001600160003373ffffffffffffffffffffffffffffffffffffffff1673ffffffffffffffffffffffffffffffffffffffff16815260200190815260200160002060009054906101000a900473ffffffffffffffffffffffffffffffffffffffff1673ffffffffffffffffffffffffffffffffffffffff168152506000876040518082805190602001908083835b60208310151561164b5780518252602082019150602081019050602083039250611626565b6001836020036101000a03801982511681845116808217855250505050505090500191505090815260200160405180910390206000820151816000015560208201518160010160006101000a81548173ffffffffffffffffffffffffffffffffffffffff021916908373ffffffffffffffffffffffffffffffffffffffff1602179055506040820151816002015560608201518160030190805190602001906116f59291906117fd565b506080820151816004015560a082015181600501908051906020019061171c9291906117fd565b5060c08201518160060190805190602001906117399291906117fd565b5060e08201518160070160006101000a81548173ffffffffffffffffffffffffffffffffffffffff021916908373ffffffffffffffffffffffffffffffffffffffff1602179055509050508560026000600354815260200190815260200160002090805190602001906117ad92919061187d565b506001600354016003819055507f49dedf50ed242d178ad5f1e38f3d37c673402e4a1168413f578dc56a05eedc7960405160405180910390a1600190506117f4565b600090505b95945050505050565b828054600181600116156101000203166002900490600052602060002090601f016020900481019282601f1061183e57805160ff191683800117855561186c565b8280016001018555821561186c579182015b8281111561186b578251825591602001919060010190611850565b5b50905061187991906118fd565b5090565b828054600181600116156101000203166002900490600052602060002090601f016020900481019282601f106118be57805160ff19168380011785556118ec565b828001600101855582156118ec579182015b828111156118eb5782518255916020019190600101906118d0565b5b5090506118f991906118fd565b5090565b61191f91905b8082111561191b576000816000905550600101611903565b5090565b905600a165627a7a723058202cb3b3210dba3e0f0e8978899f7b0718e0a58cfb14e87392abe9b7c2ec94720d0029",
  "source": "pragma solidity ^0.4.22;\n\n\n// resource manager manages resources info that are uploaded to the platform\ncontract ResourceManager {\n    // resource detail\n    struct ResourceInfo {\n        uint id;\n        address owner;\n        uint timestamp;\n        string name;\n        uint size;\n        string description;\n        string tags;\n        address agent;\n    }\n    \n    // mapping resource hash to its detail\n    mapping (string => ResourceInfo) resources;\n    \n    // mapping user account address to his agent contract address (for request resource)\n    mapping (address => address) agents;\n    \n    // mapping index of resource to its hash\n    mapping (uint => string) hashes;\n    \n    // total count of resources\n    uint public resourcesCount;\n    \n    // notify all users that new resources info are uploaded\n    event logResourceUpload();\n    \n    // notify that an user has registered his agent contract  \n    event logRegisterAgent(address owner, address agent);\n    \n    constructor() public {\n        resourcesCount = 0; \n    }\n\n    function uploadResourceInfo(string hash, string name, uint size, string description, string tags) public returns (bool status)\n    {\n        if (resources[hash].timestamp == 0) \n        {\n            // validate something here\n            resources[hash] = ResourceInfo(resourcesCount, msg.sender, block.timestamp, name, size, description, tags, agents[msg.sender]);\n            hashes[resourcesCount] = hash;\n            resourcesCount = resourcesCount + 1;\n            emit logResourceUpload();\n            return true;\n        }\n        else\n        {\n            return false;\n        }\n    }\n\n    function getResourcesCount() public view returns (uint count)\n    {\n        return resourcesCount;\n    }\n    \n    function getResourceInfoByHash(string hash) public view returns (uint id, uint timestamp, string name, uint size, string description, string tags, address agent)  \n    {\n        require(resources[hash].timestamp != 0, \"resource does not exist\");\n        id = resources[hash].id;\n        timestamp = resources[hash].timestamp;\n        return (id, timestamp, resources[hash].name, resources[hash].size, resources[hash].description, resources[hash].tags, resources[hash].agent);\n    }\n    \n    function getResourceInfoById(uint id) public view returns (string hash, address owner, uint timestamp, string name, uint size, string description, string tags, address agent) \n    {\n        require(id < resourcesCount, \"id out of range\");\n        hash = hashes[id];\n        owner = resources[hash].owner;\n        return (hash, owner, resources[hash].timestamp, resources[hash].name, resources[hash].size, resources[hash].description, resources[hash].tags, resources[hash].agent);\n    }\n    \n    \n    function registerAgent(address agent) public returns (bool status) {\n        if (agent != address(0)) {\n            agents[msg.sender] = agent;\n            emit logRegisterAgent(msg.sender, agent);\n            return true;\n        }\n        return false;\n    }\n    \n    \n}    \n",
  "sourcePath": "/disk4/home/yop/projects/resource-chain/dapp/contracts/ResourceManager.sol",
  "compiler": {
    "name": "solc",
    "version": "0.4.22+commit.4cb486ee.Emscripten.clang"
  },
  "schemaVersion": "3.0.0",
  "updatedAt": "2018-12-30T17:42:30.087Z",
  "devdoc": {
    "methods": {}
  },
  "userdoc": {
    "methods": {}
  }
}