{
  "contractName": "ResourceManager",
  "abi": [
    {
      "constant": true,
      "inputs": [],
      "name": "resourcesCount",
      "outputs": [
        {
          "name": "",
          "type": "uint256"
        }
      ],
      "payable": false,
      "stateMutability": "view",
      "type": "function",
      "signature": "0x51ac7b8c"
    },
    {
      "inputs": [],
      "payable": false,
      "stateMutability": "nonpayable",
      "type": "constructor",
      "signature": "constructor"
    },
    {
      "anonymous": false,
      "inputs": [],
      "name": "logResourceUpload",
      "type": "event",
      "signature": "0x49dedf50ed242d178ad5f1e38f3d37c673402e4a1168413f578dc56a05eedc79"
    },
    {
      "anonymous": false,
      "inputs": [
        {
          "indexed": false,
          "name": "owner",
          "type": "address"
        },
        {
          "indexed": false,
          "name": "agent",
          "type": "address"
        }
      ],
      "name": "logRegisterAgent",
      "type": "event",
      "signature": "0x22070b6cf9b1647bc74ad0d2038c940cd37b676561ae60d75b2cf1d908843760"
    },
    {
      "constant": false,
      "inputs": [
        {
          "name": "hash",
          "type": "string"
        },
        {
          "name": "name",
          "type": "string"
        },
        {
          "name": "size",
          "type": "uint256"
        },
        {
          "name": "description",
          "type": "string"
        },
        {
          "name": "tags",
          "type": "string"
        }
      ],
      "name": "uploadResourceInfo",
      "outputs": [
        {
          "name": "status",
          "type": "bool"
        }
      ],
      "payable": false,
      "stateMutability": "nonpayable",
      "type": "function",
      "signature": "0xb734cdae"
    },
    {
      "constant": true,
      "inputs": [
        {
          "name": "resourceHash",
          "type": "string"
        }
      ],
      "name": "getResourceInfoByHash",
      "outputs": [
        {
          "name": "owner",
          "type": "address"
        },
        {
          "name": "timestamp",
          "type": "uint256"
        },
        {
          "name": "name",
          "type": "string"
        },
        {
          "name": "size",
          "type": "uint256"
        },
        {
          "name": "description",
          "type": "string"
        },
        {
          "name": "tags",
          "type": "string"
        },
        {
          "name": "agent",
          "type": "address"
        }
      ],
      "payable": false,
      "stateMutability": "view",
      "type": "function",
      "signature": "0xb6abdc07"
    },
    {
      "constant": true,
      "inputs": [
        {
          "name": "id",
          "type": "uint256"
        }
      ],
      "name": "getResourceInfoById",
      "outputs": [
        {
          "name": "owner",
          "type": "address"
        },
        {
          "name": "timestamp",
          "type": "uint256"
        },
        {
          "name": "name",
          "type": "string"
        },
        {
          "name": "size",
          "type": "uint256"
        },
        {
          "name": "description",
          "type": "string"
        },
        {
          "name": "tags",
          "type": "string"
        },
        {
          "name": "agent",
          "type": "address"
        }
      ],
      "payable": false,
      "stateMutability": "view",
      "type": "function",
      "signature": "0x3378bcd0"
    },
    {
      "constant": false,
      "inputs": [
        {
          "name": "agent",
          "type": "address"
        }
      ],
      "name": "registerAgent",
      "outputs": [
        {
          "name": "status",
          "type": "bool"
        }
      ],
      "payable": false,
      "stateMutability": "nonpayable",
      "type": "function",
      "signature": "0x306b9bb9"
    }
  ],
  "bytecode": "0x608060405234801561001057600080fd5b506000600381905550611860806100286000396000f30060806040526004361061006d576000357c0100000000000000000000000000000000000000000000000000000000900463ffffffff168063306b9bb9146100725780633378bcd0146100cd57806351ac7b8c146102bf578063b6abdc07146102ea578063b734cdae14610518575b600080fd5b34801561007e57600080fd5b506100b3600480360381019080803573ffffffffffffffffffffffffffffffffffffffff169060200190929190505050610675565b604051808215151515815260200191505060405180910390f35b3480156100d957600080fd5b506100f8600480360381019080803590602001909291905050506107d4565b604051808873ffffffffffffffffffffffffffffffffffffffff1673ffffffffffffffffffffffffffffffffffffffff1681526020018781526020018060200186815260200180602001806020018573ffffffffffffffffffffffffffffffffffffffff1673ffffffffffffffffffffffffffffffffffffffff168152602001848103845289818151815260200191508051906020019080838360005b838110156101b0578082015181840152602081019050610195565b50505050905090810190601f1680156101dd5780820380516001836020036101000a031916815260200191505b50848103835287818151815260200191508051906020019080838360005b838110156102165780820151818401526020810190506101fb565b50505050905090810190601f1680156102435780820380516001836020036101000a031916815260200191505b50848103825286818151815260200191508051906020019080838360005b8381101561027c578082015181840152602081019050610261565b50505050905090810190601f1680156102a95780820380516001836020036101000a031916815260200191505b509a505050505050505050505060405180910390f35b3480156102cb57600080fd5b506102d4610dcd565b6040518082815260200191505060405180910390f35b3480156102f657600080fd5b50610351600480360381019080803590602001908201803590602001908080601f0160208091040260200160405190810160405280939291908181526020018383808284378201915050505050509192919290505050610dd3565b604051808873ffffffffffffffffffffffffffffffffffffffff1673ffffffffffffffffffffffffffffffffffffffff1681526020018781526020018060200186815260200180602001806020018573ffffffffffffffffffffffffffffffffffffffff1673ffffffffffffffffffffffffffffffffffffffff168152602001848103845289818151815260200191508051906020019080838360005b838110156104095780820151818401526020810190506103ee565b50505050905090810190601f1680156104365780820380516001836020036101000a031916815260200191505b50848103835287818151815260200191508051906020019080838360005b8381101561046f578082015181840152602081019050610454565b50505050905090810190601f16801561049c5780820380516001836020036101000a031916815260200191505b50848103825286818151815260200191508051906020019080838360005b838110156104d55780820151818401526020810190506104ba565b50505050905090810190601f1680156105025780820380516001836020036101000a031916815260200191505b509a505050505050505050505060405180910390f35b34801561052457600080fd5b5061065b600480360381019080803590602001908201803590602001908080601f0160208091040260200160405190810160405280939291908181526020018383808284378201915050505050509192919290803590602001908201803590602001908080601f016020809104026020016040519081016040528093929190818152602001838380828437820191505050505050919291929080359060200190929190803590602001908201803590602001908080601f0160208091040260200160405190810160405280939291908181526020018383808284378201915050505050509192919290803590602001908201803590602001908080601f01602080910402602001604051908101604052809392919081815260200183838082843782019150505050505091929192905050506113f8565b604051808215151515815260200191505060405180910390f35b60008073ffffffffffffffffffffffffffffffffffffffff168273ffffffffffffffffffffffffffffffffffffffff161415156107ca5781600160003373ffffffffffffffffffffffffffffffffffffffff1673ffffffffffffffffffffffffffffffffffffffff16815260200190815260200160002060006101000a81548173ffffffffffffffffffffffffffffffffffffffff021916908373ffffffffffffffffffffffffffffffffffffffff1602179055507f22070b6cf9b1647bc74ad0d2038c940cd37b676561ae60d75b2cf1d9088437603383604051808373ffffffffffffffffffffffffffffffffffffffff1673ffffffffffffffffffffffffffffffffffffffff1681526020018273ffffffffffffffffffffffffffffffffffffffff1673ffffffffffffffffffffffffffffffffffffffff1681526020019250505060405180910390a1600190506107cf565b600090505b919050565b600080606060006060806000806003548910151561085a576040517f08c379a000000000000000000000000000000000000000000000000000000000815260040180806020018281038252600f8152602001807f6964206f7574206f662072616e6765000000000000000000000000000000000081525060200191505060405180910390fd5b600260008a8152602001908152602001600020905060008160405180828054600181600116156101000203166002900480156108cd5780601f106108ab5761010080835404028352918201916108cd565b820191906000526020600020905b8154815290600101906020018083116108b9575b5050915050908152602001604051809103902060000160009054906101000a900473ffffffffffffffffffffffffffffffffffffffff1660008260405180828054600181600116156101000203166002900480156109625780601f10610940576101008083540402835291820191610962565b820191906000526020600020905b81548152906001019060200180831161094e575b505091505090815260200160405180910390206001015460008360405180828054600181600116156101000203166002900480156109d75780601f106109b55761010080835404028352918201916109d7565b820191906000526020600020905b8154815290600101906020018083116109c3575b505091505090815260200160405180910390206002016000846040518082805460018160011615610100020316600290048015610a4b5780601f10610a29576101008083540402835291820191610a4b565b820191906000526020600020905b815481529060010190602001808311610a37575b50509150509081526020016040518091039020600301546000856040518082805460018160011615610100020316600290048015610ac05780601f10610a9e576101008083540402835291820191610ac0565b820191906000526020600020905b815481529060010190602001808311610aac575b505091505090815260200160405180910390206004016000866040518082805460018160011615610100020316600290048015610b345780601f10610b12576101008083540402835291820191610b34565b820191906000526020600020905b815481529060010190602001808311610b20575b505091505090815260200160405180910390206005016000876040518082805460018160011615610100020316600290048015610ba85780601f10610b86576101008083540402835291820191610ba8565b820191906000526020600020905b815481529060010190602001808311610b94575b5050915050908152602001604051809103902060060160009054906101000a900473ffffffffffffffffffffffffffffffffffffffff16848054600181600116156101000203166002900480601f016020809104026020016040519081016040528092919081815260200182805460018160011615610100020316600290048015610c745780601f10610c4957610100808354040283529160200191610c74565b820191906000526020600020905b815481529060010190602001808311610c5757829003601f168201915b50505050509450828054600181600116156101000203166002900480601f016020809104026020016040519081016040528092919081815260200182805460018160011615610100020316600290048015610d105780601f10610ce557610100808354040283529160200191610d10565b820191906000526020600020905b815481529060010190602001808311610cf357829003601f168201915b50505050509250818054600181600116156101000203166002900480601f016020809104026020016040519081016040528092919081815260200182805460018160011615610100020316600290048015610dac5780601f10610d8157610100808354040283529160200191610dac565b820191906000526020600020905b815481529060010190602001808311610d8f57829003601f168201915b50505050509150975097509750975097509750975050919395979092949650565b60035481565b600080606060006060806000806000896040518082805190602001908083835b602083101515610e185780518252602082019150602081019050602083039250610df3565b6001836020036101000a03801982511681845116808217855250505050505090500191505090815260200160405180910390206001015414151515610ec5576040517f08c379a00000000000000000000000000000000000000000000000000000000081526004018080602001828103825260178152602001807f7265736f7572636520646f6573206e6f7420657869737400000000000000000081525060200191505060405180910390fd5b6000886040518082805190602001908083835b602083101515610efd5780518252602082019150602081019050602083039250610ed8565b6001836020036101000a038019825116818451168082178552505050505050905001915050908152602001604051809103902060000160009054906101000a900473ffffffffffffffffffffffffffffffffffffffff166000896040518082805190602001908083835b602083101515610f8c5780518252602082019150602081019050602083039250610f67565b6001836020036101000a03801982511681845116808217855250505050505090500191505090815260200160405180910390206001015460008a6040518082805190602001908083835b602083101515610ffb5780518252602082019150602081019050602083039250610fd6565b6001836020036101000a038019825116818451168082178552505050505050905001915050908152602001604051809103902060020160008b6040518082805190602001908083835b6020831015156110695780518252602082019150602081019050602083039250611044565b6001836020036101000a03801982511681845116808217855250505050505090500191505090815260200160405180910390206003015460008c6040518082805190602001908083835b6020831015156110d857805182526020820191506020810190506020830392506110b3565b6001836020036101000a038019825116818451168082178552505050505050905001915050908152602001604051809103902060040160008d6040518082805190602001908083835b6020831015156111465780518252602082019150602081019050602083039250611121565b6001836020036101000a038019825116818451168082178552505050505050905001915050908152602001604051809103902060050160008e6040518082805190602001908083835b6020831015156111b4578051825260208201915060208101905060208303925061118f565b6001836020036101000a038019825116818451168082178552505050505050905001915050908152602001604051809103902060060160009054906101000a900473ffffffffffffffffffffffffffffffffffffffff16848054600181600116156101000203166002900480601f0160208091040260200160405190810160405280929190818152602001828054600181600116156101000203166002900480156112a05780601f10611275576101008083540402835291602001916112a0565b820191906000526020600020905b81548152906001019060200180831161128357829003601f168201915b50505050509450828054600181600116156101000203166002900480601f01602080910402602001604051908101604052809291908181526020018280546001816001161561010002031660029004801561133c5780601f106113115761010080835404028352916020019161133c565b820191906000526020600020905b81548152906001019060200180831161131f57829003601f168201915b50505050509250818054600181600116156101000203166002900480601f0160208091040260200160405190810160405280929190818152602001828054600181600116156101000203166002900480156113d85780601f106113ad576101008083540402835291602001916113d8565b820191906000526020600020905b8154815290600101906020018083116113bb57829003601f168201915b505050505091509650965096509650965096509650919395979092949650565b6000806000876040518082805190602001908083835b602083101515611433578051825260208201915060208101905060208303925061140e565b6001836020036101000a03801982511681845116808217855250505050505090500191505090815260200160405180910390206001015414156117015760e0604051908101604052803373ffffffffffffffffffffffffffffffffffffffff168152602001428152602001868152602001858152602001848152602001838152602001600160003373ffffffffffffffffffffffffffffffffffffffff1673ffffffffffffffffffffffffffffffffffffffff16815260200190815260200160002060009054906101000a900473ffffffffffffffffffffffffffffffffffffffff1673ffffffffffffffffffffffffffffffffffffffff168152506000876040518082805190602001908083835b6020831015156115675780518252602082019150602081019050602083039250611542565b6001836020036101000a038019825116818451168082178552505050505050905001915050908152602001604051809103902060008201518160000160006101000a81548173ffffffffffffffffffffffffffffffffffffffff021916908373ffffffffffffffffffffffffffffffffffffffff16021790555060208201518160010155604082015181600201908051906020019061160792919061170f565b5060608201518160030155608082015181600401908051906020019061162e92919061170f565b5060a082015181600501908051906020019061164b92919061170f565b5060c08201518160060160006101000a81548173ffffffffffffffffffffffffffffffffffffffff021916908373ffffffffffffffffffffffffffffffffffffffff1602179055509050508560026000600354815260200190815260200160002090805190602001906116bf92919061178f565b506001600354016003819055507f49dedf50ed242d178ad5f1e38f3d37c673402e4a1168413f578dc56a05eedc7960405160405180910390a160019050611706565b600090505b95945050505050565b828054600181600116156101000203166002900490600052602060002090601f016020900481019282601f1061175057805160ff191683800117855561177e565b8280016001018555821561177e579182015b8281111561177d578251825591602001919060010190611762565b5b50905061178b919061180f565b5090565b828054600181600116156101000203166002900490600052602060002090601f016020900481019282601f106117d057805160ff19168380011785556117fe565b828001600101855582156117fe579182015b828111156117fd5782518255916020019190600101906117e2565b5b50905061180b919061180f565b5090565b61183191905b8082111561182d576000816000905550600101611815565b5090565b905600a165627a7a72305820fffeeb92214e6fde58003b9903469e280e3f26b69bcaa70abaddfcd641d042a60029",
  "source": "pragma solidity ^0.4.22;\n\n\n// resource manager manages resources info that are uploaded to the platform\ncontract ResourceManager {\n    // resource detail\n    struct ResourceInfo {\n        address owner;\n        uint timestamp;\n        string name;\n        uint size;\n        string description;\n        string tags;\n        address agent;\n    }\n    \n    // mapping resource hash to its detail\n    mapping (string => ResourceInfo) resources;\n    \n    // mapping user account address to his agent contract address (for request resource)\n    mapping (address => address) agents;\n    \n    // mapping index of resource to its hash\n    mapping (uint => string) hashes;\n    \n    // total count of resources\n    uint public resourcesCount;\n    \n    // notify all users that new resources info are uploaded\n    event logResourceUpload();\n    \n    // notify that an user has registered his agent contract  \n    event logRegisterAgent(address owner, address agent);\n    \n    constructor() public {\n        resourcesCount = 0; \n    }\n\n    function uploadResourceInfo(string hash, string name, uint size, string description, string tags) public returns (bool status)\n    {\n        if (resources[hash].timestamp == 0) \n        {\n            // validate something here\n            resources[hash] = ResourceInfo(msg.sender, block.timestamp, name, size, description, tags, agents[msg.sender]);\n            hashes[resourcesCount] = hash;\n            resourcesCount = resourcesCount + 1;\n            emit logResourceUpload();\n            return true;\n        }\n        else\n        {\n            return false;\n        }\n    }\n    \n    function getResourceInfoByHash(string resourceHash) public view returns (address owner, uint timestamp, string name, uint size, string description, string tags, address agent)  \n    {\n        require(resources[resourceHash].timestamp != 0, \"resource does not exist\");\n        return (resources[resourceHash].owner, resources[resourceHash].timestamp, resources[resourceHash].name, resources[resourceHash].size, resources[resourceHash].description, resources[resourceHash].tags, resources[resourceHash].agent);\n    }\n    \n    function getResourceInfoById(uint id) public view returns (address owner, uint timestamp, string name, uint size, string description, string tags, address agent) \n    {\n        require(id < resourcesCount, \"id out of range\");\n        string storage hash = hashes[id];\n        return (resources[hash].owner, resources[hash].timestamp, resources[hash].name, resources[hash].size, resources[hash].description, resources[hash].tags, resources[hash].agent);\n    }\n    \n    \n    function registerAgent(address agent) public returns (bool status) {\n        if (agent != address(0)) {\n            agents[msg.sender] = agent;\n            emit logRegisterAgent(msg.sender, agent);\n            return true;\n        }\n        return false;\n    }\n    \n    \n}    \n",
  "sourcePath": "/disk4/home/yop/projects/resource-chain/dapp/contracts/ResourceManager.sol",
  "compiler": {
    "name": "solc",
    "version": "0.4.22+commit.4cb486ee.Emscripten.clang"
  },
  "schemaVersion": "3.0.0",
  "updatedAt": "2018-12-26T15:42:25.736Z",
  "devdoc": {
    "methods": {}
  },
  "userdoc": {
    "methods": {}
  }
}